{
  "abi": [
    {
      "inputs": [],
      "stateMutability": "nonpayable",
      "type": "constructor"
    },
    {
      "inputs": [],
      "name": "BuyTickets",
      "outputs": [],
      "stateMutability": "payable",
      "type": "function"
    },
    {
      "inputs": [],
      "name": "CurrentWinningReward",
      "outputs": [
        {
          "internalType": "uint256",
          "name": "",
          "type": "uint256"
        }
      ],
      "stateMutability": "view",
      "type": "function"
    },
    {
      "inputs": [],
      "name": "DrawWinnerTicket",
      "outputs": [],
      "stateMutability": "nonpayable",
      "type": "function"
    },
    {
      "inputs": [],
      "name": "IsWinner",
      "outputs": [
        {
          "internalType": "bool",
          "name": "",
          "type": "bool"
        }
      ],
      "stateMutability": "view",
      "type": "function"
    },
    {
      "inputs": [],
      "name": "RefundAll",
      "outputs": [],
      "stateMutability": "nonpayable",
      "type": "function"
    },
    {
      "inputs": [],
      "name": "RemainingTickets",
      "outputs": [
        {
          "internalType": "uint256",
          "name": "",
          "type": "uint256"
        }
      ],
      "stateMutability": "view",
      "type": "function"
    },
    {
      "inputs": [],
      "name": "WithdrawCommission",
      "outputs": [],
      "stateMutability": "nonpayable",
      "type": "function"
    },
    {
      "inputs": [],
      "name": "WithdrawWinnings",
      "outputs": [],
      "stateMutability": "nonpayable",
      "type": "function"
    },
    {
      "inputs": [],
      "name": "checkWinningsAmount",
      "outputs": [
        {
          "internalType": "uint256",
          "name": "",
          "type": "uint256"
        }
      ],
      "stateMutability": "view",
      "type": "function"
    },
    {
      "inputs": [],
      "name": "duration",
      "outputs": [
        {
          "internalType": "uint256",
          "name": "",
          "type": "uint256"
        }
      ],
      "stateMutability": "view",
      "type": "function"
    },
    {
      "inputs": [],
      "name": "expiration",
      "outputs": [
        {
          "internalType": "uint256",
          "name": "",
          "type": "uint256"
        }
      ],
      "stateMutability": "view",
      "type": "function"
    },
    {
      "inputs": [],
      "name": "getTickets",
      "outputs": [
        {
          "internalType": "address[]",
          "name": "",
          "type": "address[]"
        }
      ],
      "stateMutability": "view",
      "type": "function"
    },
    {
      "inputs": [
        {
          "internalType": "address",
          "name": "addr",
          "type": "address"
        }
      ],
      "name": "getWinningsForAddress",
      "outputs": [
        {
          "internalType": "uint256",
          "name": "",
          "type": "uint256"
        }
      ],
      "stateMutability": "view",
      "type": "function"
    },
    {
      "inputs": [],
      "name": "lastWinner",
      "outputs": [
        {
          "internalType": "address",
          "name": "",
          "type": "address"
        }
      ],
      "stateMutability": "view",
      "type": "function"
    },
    {
      "inputs": [],
      "name": "lastWinnerAmount",
      "outputs": [
        {
          "internalType": "uint256",
          "name": "",
          "type": "uint256"
        }
      ],
      "stateMutability": "view",
      "type": "function"
    },
    {
      "inputs": [],
      "name": "lotteryOperator",
      "outputs": [
        {
          "internalType": "address",
          "name": "",
          "type": "address"
        }
      ],
      "stateMutability": "view",
      "type": "function"
    },
    {
      "inputs": [],
      "name": "maxTickets",
      "outputs": [
        {
          "internalType": "uint256",
          "name": "",
          "type": "uint256"
        }
      ],
      "stateMutability": "view",
      "type": "function"
    },
    {
      "inputs": [],
      "name": "operatorTotalCommission",
      "outputs": [
        {
          "internalType": "uint256",
          "name": "",
          "type": "uint256"
        }
      ],
      "stateMutability": "view",
      "type": "function"
    },
    {
      "inputs": [],
      "name": "restartDraw",
      "outputs": [],
      "stateMutability": "nonpayable",
      "type": "function"
    },
    {
      "inputs": [],
      "name": "ticketCommission",
      "outputs": [
        {
          "internalType": "uint256",
          "name": "",
          "type": "uint256"
        }
      ],
      "stateMutability": "view",
      "type": "function"
    },
    {
      "inputs": [],
      "name": "ticketPrice",
      "outputs": [
        {
          "internalType": "uint256",
          "name": "",
          "type": "uint256"
        }
      ],
      "stateMutability": "view",
      "type": "function"
    },
    {
      "inputs": [
        {
          "internalType": "uint256",
          "name": "",
          "type": "uint256"
        }
      ],
      "name": "tickets",
      "outputs": [
        {
          "internalType": "address",
          "name": "",
          "type": "address"
        }
      ],
      "stateMutability": "view",
      "type": "function"
    },
    {
      "inputs": [
        {
          "internalType": "address",
          "name": "",
          "type": "address"
        }
      ],
      "name": "winnings",
      "outputs": [
        {
          "internalType": "uint256",
          "name": "",
          "type": "uint256"
        }
      ],
      "stateMutability": "view",
      "type": "function"
    }
  ],
  "devdoc": {
    "kind": "dev",
    "methods": {},
    "version": 1
  },
  "evm": {
    "assembly": "    /* \"NDLottery.sol\":122:4603  contract NDLottery {... */\n  mstore(0x40, 0x80)\n    /* \"NDLottery.sol\":638:639  0 */\n  0x00\n    /* \"NDLottery.sol\":597:639  uint256 public operatorTotalCommission = 0 */\n  0x02\n  sstore\n    /* \"NDLottery.sol\":1341:1449  constructor() {... */\n  callvalue\n  dup1\n  iszero\n  tag_1\n  jumpi\n  0x00\n  dup1\n  revert\ntag_1:\n  pop\n    /* \"NDLottery.sol\":1365:1380  lotteryOperator */\n  0x01\n    /* \"NDLottery.sol\":1365:1393  lotteryOperator = msg.sender */\n  dup1\n  sload\n  not(sub(shl(0xa0, 0x01), 0x01))\n  and\n    /* \"NDLottery.sol\":1383:1393  msg.sender */\n  caller\n    /* \"NDLottery.sol\":1365:1393  lotteryOperator = msg.sender */\n  or\n  swap1\n  sstore\n    /* \"NDLottery.sol\":1416:1442  block.timestamp + duration */\n  tag_4\n    /* \"NDLottery.sol\":394:401  2 hours */\n  0x1c20\n    /* \"NDLottery.sol\":1416:1431  block.timestamp */\n  timestamp\n    /* \"NDLottery.sol\":1416:1442  block.timestamp + duration */\n  tag_5\n  jump\t// in\ntag_4:\n    /* \"NDLottery.sol\":1403:1413  expiration */\n  0x00\n    /* \"NDLottery.sol\":1403:1442  expiration = block.timestamp + duration */\n  sstore\n    /* \"NDLottery.sol\":122:4603  contract NDLottery {... */\n  jump(tag_7)\n    /* \"#utility.yul\":14:239   */\ntag_5:\n    /* \"#utility.yul\":54:57   */\n  0x00\n    /* \"#utility.yul\":85:86   */\n  dup3\n    /* \"#utility.yul\":81:87   */\n  not\n    /* \"#utility.yul\":78:79   */\n  dup3\n    /* \"#utility.yul\":75:88   */\n  gt\n    /* \"#utility.yul\":72:208   */\n  iszero\n  tag_9\n  jumpi\n    /* \"#utility.yul\":130:140   */\n  0x4e487b71\n    /* \"#utility.yul\":125:128   */\n  0xe0\n    /* \"#utility.yul\":121:141   */\n  shl\n    /* \"#utility.yul\":118:119   */\n  0x00\n    /* \"#utility.yul\":111:142   */\n  mstore\n    /* \"#utility.yul\":165:169   */\n  0x11\n    /* \"#utility.yul\":162:163   */\n  0x04\n    /* \"#utility.yul\":155:170   */\n  mstore\n    /* \"#utility.yul\":193:197   */\n  0x24\n    /* \"#utility.yul\":190:191   */\n  0x00\n    /* \"#utility.yul\":183:198   */\n  revert\n    /* \"#utility.yul\":72:208   */\ntag_9:\n  pop\n    /* \"#utility.yul\":224:233   */\n  add\n  swap1\n    /* \"#utility.yul\":14:239   */\n  jump\t// out\ntag_7:\n    /* \"NDLottery.sol\":122:4603  contract NDLottery {... */\n  dataSize(sub_0)\n  dup1\n  dataOffset(sub_0)\n  0x00\n  codecopy\n  0x00\n  return\nstop\n\nsub_0: assembly {\n        /* \"NDLottery.sol\":122:4603  contract NDLottery {... */\n      mstore(0x40, 0x80)\n      jumpi(tag_1, lt(calldatasize, 0x04))\n      shr(0xe0, calldataload(0x00))\n      dup1\n      0x71827b7b\n      gt\n      tag_25\n      jumpi\n      dup1\n      0xba946d79\n      gt\n      tag_26\n      jumpi\n      dup1\n      0xea3a1499\n      gt\n      tag_27\n      jumpi\n      dup1\n      0xea3a1499\n      eq\n      tag_22\n      jumpi\n      dup1\n      0xf2613269\n      eq\n      tag_23\n      jumpi\n      dup1\n      0xfe188184\n      eq\n      tag_24\n      jumpi\n      0x00\n      dup1\n      revert\n    tag_27:\n      dup1\n      0xba946d79\n      eq\n      tag_19\n      jumpi\n      dup1\n      0xc6944fa0\n      eq\n      tag_20\n      jumpi\n      dup1\n      0xdd64e534\n      eq\n      tag_21\n      jumpi\n      0x00\n      dup1\n      revert\n    tag_26:\n      dup1\n      0x96c85ef3\n      gt\n      tag_28\n      jumpi\n      dup1\n      0x96c85ef3\n      eq\n      tag_16\n      jumpi\n      dup1\n      0x9b894703\n      eq\n      tag_17\n      jumpi\n      dup1\n      0xa88f4672\n      eq\n      tag_18\n      jumpi\n      0x00\n      dup1\n      revert\n    tag_28:\n      dup1\n      0x71827b7b\n      eq\n      tag_13\n      jumpi\n      dup1\n      0x91d8b14e\n      eq\n      tag_14\n      jumpi\n      dup1\n      0x93a563b5\n      eq\n      tag_15\n      jumpi\n      0x00\n      dup1\n      revert\n    tag_25:\n      dup1\n      0x4665096d\n      gt\n      tag_29\n      jumpi\n      dup1\n      0x50b44712\n      gt\n      tag_30\n      jumpi\n      dup1\n      0x50b44712\n      eq\n      tag_10\n      jumpi\n      dup1\n      0x5a58acdd\n      eq\n      tag_11\n      jumpi\n      dup1\n      0x6032a4f9\n      eq\n      tag_12\n      jumpi\n      0x00\n      dup1\n      revert\n    tag_30:\n      dup1\n      0x4665096d\n      eq\n      tag_7\n      jumpi\n      dup1\n      0x4788af7c\n      eq\n      tag_8\n      jumpi\n      dup1\n      0x4ed02622\n      eq\n      tag_9\n      jumpi\n      0x00\n      dup1\n      revert\n    tag_29:\n      dup1\n      0x0fb5a6b4\n      gt\n      tag_31\n      jumpi\n      dup1\n      0x0fb5a6b4\n      eq\n      tag_4\n      jumpi\n      dup1\n      0x1209b1f6\n      eq\n      tag_5\n      jumpi\n      dup1\n      0x35580df2\n      eq\n      tag_6\n      jumpi\n      0x00\n      dup1\n      revert\n    tag_31:\n      dup1\n      0x06f7f3bf\n      eq\n      tag_2\n      jumpi\n      dup1\n      0x0789c607\n      eq\n      tag_3\n      jumpi\n    tag_1:\n      0x00\n      dup1\n      revert\n        /* \"NDLottery.sol\":742:773  uint256 public lastWinnerAmount */\n    tag_2:\n      callvalue\n      dup1\n      iszero\n      tag_32\n      jumpi\n      0x00\n      dup1\n      revert\n    tag_32:\n      pop\n      tag_33\n      sload(0x04)\n      dup2\n      jump\n    tag_33:\n      mload(0x40)\n        /* \"#utility.yul\":160:185   */\n      swap1\n      dup2\n      mstore\n        /* \"#utility.yul\":148:150   */\n      0x20\n        /* \"#utility.yul\":133:151   */\n      add\n        /* \"NDLottery.sol\":742:773  uint256 public lastWinnerAmount */\n    tag_35:\n      mload(0x40)\n      dup1\n      swap2\n      sub\n      swap1\n      return\n        /* \"NDLottery.sol\":3193:3401  function checkWinningsAmount() public view returns (uint256) {... */\n    tag_3:\n      callvalue\n      dup1\n      iszero\n      tag_37\n      jumpi\n      0x00\n      dup1\n      revert\n    tag_37:\n      pop\n        /* \"NDLottery.sol\":3297:3307  msg.sender */\n      caller\n        /* \"NDLottery.sol\":3245:3252  uint256 */\n      0x00\n        /* \"NDLottery.sol\":3345:3361  winnings[winner] */\n      swap1\n      dup2\n      mstore\n        /* \"NDLottery.sol\":3345:3353  winnings */\n      0x05\n        /* \"NDLottery.sol\":3345:3361  winnings[winner] */\n      0x20\n      mstore\n      0x40\n      swap1\n      keccak256\n      sload\n        /* \"NDLottery.sol\":3193:3401  function checkWinningsAmount() public view returns (uint256) {... */\n      jump(tag_33)\n        /* \"NDLottery.sol\":359:401  uint256 public constant duration = 2 hours */\n    tag_4:\n      callvalue\n      dup1\n      iszero\n      tag_41\n      jumpi\n      0x00\n      dup1\n      revert\n    tag_41:\n      pop\n      tag_33\n        /* \"NDLottery.sol\":394:401  2 hours */\n      0x1c20\n        /* \"NDLottery.sol\":359:401  uint256 public constant duration = 2 hours */\n      dup2\n      jump\n        /* \"NDLottery.sol\":147:192  uint256 public constant ticketPrice = 1 ether */\n    tag_5:\n      callvalue\n      dup1\n      iszero\n      tag_45\n      jumpi\n      0x00\n      dup1\n      revert\n    tag_45:\n      pop\n      tag_33\n        /* \"NDLottery.sol\":185:192  1 ether */\n      0x0de0b6b3a7640000\n        /* \"NDLottery.sol\":147:192  uint256 public constant ticketPrice = 1 ether */\n      dup2\n      jump\n        /* \"NDLottery.sol\":3983:4244  function WithdrawCommission() public isOperator {... */\n    tag_6:\n      callvalue\n      dup1\n      iszero\n      tag_49\n      jumpi\n      0x00\n      dup1\n      revert\n    tag_49:\n      pop\n      tag_50\n      tag_51\n      jump\t// in\n    tag_50:\n      stop\n        /* \"NDLottery.sol\":444:469  uint256 public expiration */\n    tag_7:\n      callvalue\n      dup1\n      iszero\n      tag_52\n      jumpi\n      0x00\n      dup1\n      revert\n    tag_52:\n      pop\n      tag_33\n      sload(0x00)\n      dup2\n      jump\n        /* \"NDLottery.sol\":2279:2990  function DrawWinnerTicket() public {... */\n    tag_8:\n      callvalue\n      dup1\n      iszero\n      tag_56\n      jumpi\n      0x00\n      dup1\n      revert\n    tag_56:\n      pop\n      tag_50\n      tag_58\n      jump\t// in\n        /* \"NDLottery.sol\":1485:1577  function getTickets() public view returns (address[] memory) {... */\n    tag_9:\n      callvalue\n      dup1\n      iszero\n      tag_59\n      jumpi\n      0x00\n      dup1\n      revert\n    tag_59:\n      pop\n      tag_60\n      tag_61\n      jump\t// in\n    tag_60:\n      mload(0x40)\n      tag_35\n      swap2\n      swap1\n      tag_63\n      jump\t// in\n        /* \"NDLottery.sol\":908:932  address[] public tickets */\n    tag_10:\n      callvalue\n      dup1\n      iszero\n      tag_64\n      jumpi\n      0x00\n      dup1\n      revert\n    tag_64:\n      pop\n      tag_65\n      tag_66\n      calldatasize\n      0x04\n      tag_67\n      jump\t// in\n    tag_66:\n      tag_68\n      jump\t// in\n    tag_65:\n      mload(0x40)\n      sub(shl(0xa0, 0x01), 0x01)\n        /* \"#utility.yul\":1231:1286   */\n      swap1\n      swap2\n      and\n        /* \"#utility.yul\":1213:1287   */\n      dup2\n      mstore\n        /* \"#utility.yul\":1201:1203   */\n      0x20\n        /* \"#utility.yul\":1186:1204   */\n      add\n        /* \"NDLottery.sol\":908:932  address[] public tickets */\n      tag_35\n        /* \"#utility.yul\":1067:1293   */\n      jump\n        /* \"NDLottery.sol\":532:562  address public lotteryOperator */\n    tag_11:\n      callvalue\n      dup1\n      iszero\n      tag_71\n      jumpi\n      0x00\n      dup1\n      revert\n    tag_71:\n      pop\n      sload(0x01)\n      tag_65\n      swap1\n      sub(shl(0xa0, 0x01), 0x01)\n      and\n      dup2\n      jump\n        /* \"NDLottery.sol\":275:329  uint256 public constant ticketCommission = 0.001 ether */\n    tag_12:\n      callvalue\n      dup1\n      iszero\n      tag_75\n      jumpi\n      0x00\n      dup1\n      revert\n    tag_75:\n      pop\n      tag_33\n        /* \"NDLottery.sol\":318:329  0.001 ether */\n      0x038d7ea4c68000\n        /* \"NDLottery.sol\":275:329  uint256 public constant ticketCommission = 0.001 ether */\n      dup2\n      jump\n        /* \"NDLottery.sol\":3407:3638  function WithdrawWinnings() public isWinner {... */\n    tag_13:\n      callvalue\n      dup1\n      iszero\n      tag_79\n      jumpi\n      0x00\n      dup1\n      revert\n    tag_79:\n      pop\n      tag_50\n      tag_81\n      jump\t// in\n        /* \"NDLottery.sol\":1702:2273  function BuyTickets() public payable {... */\n    tag_14:\n      tag_50\n      tag_83\n      jump\t// in\n        /* \"NDLottery.sol\":4492:4601  function RemainingTickets() public view returns (uint256) {... */\n    tag_15:\n      callvalue\n      dup1\n      iszero\n      tag_84\n      jumpi\n      0x00\n      dup1\n      revert\n    tag_84:\n      pop\n      tag_33\n      tag_86\n      jump\t// in\n        /* \"NDLottery.sol\":4250:4345  function IsWinner() public view returns (bool) {... */\n    tag_16:\n      callvalue\n      dup1\n      iszero\n      tag_88\n      jumpi\n      0x00\n      dup1\n      revert\n    tag_88:\n      pop\n        /* \"NDLottery.sol\":4323:4333  msg.sender */\n      caller\n        /* \"NDLottery.sol\":4291:4295  bool */\n      0x00\n        /* \"NDLottery.sol\":4314:4334  winnings[msg.sender] */\n      swap1\n      dup2\n      mstore\n        /* \"NDLottery.sol\":4314:4322  winnings */\n      0x05\n        /* \"NDLottery.sol\":4314:4334  winnings[msg.sender] */\n      0x20\n      mstore\n      0x40\n      swap1\n      keccak256\n      sload\n        /* \"NDLottery.sol\":4314:4338  winnings[msg.sender] > 0 */\n      iszero\n      iszero\n        /* \"NDLottery.sol\":4250:4345  function IsWinner() public view returns (bool) {... */\n      mload(0x40)\n        /* \"#utility.yul\":1463:1477   */\n      swap1\n      iszero\n        /* \"#utility.yul\":1456:1478   */\n      iszero\n        /* \"#utility.yul\":1438:1479   */\n      dup2\n      mstore\n        /* \"#utility.yul\":1426:1428   */\n      0x20\n        /* \"#utility.yul\":1411:1429   */\n      add\n        /* \"NDLottery.sol\":4250:4345  function IsWinner() public view returns (bool) {... */\n      tag_35\n        /* \"#utility.yul\":1298:1485   */\n      jump\n        /* \"NDLottery.sol\":198:238  uint256 public constant maxTickets = 100 */\n    tag_17:\n      callvalue\n      dup1\n      iszero\n      tag_93\n      jumpi\n      0x00\n      dup1\n      revert\n    tag_93:\n      pop\n      tag_33\n        /* \"NDLottery.sol\":235:238  100 */\n      0x64\n        /* \"NDLottery.sol\":198:238  uint256 public constant maxTickets = 100 */\n      dup2\n      jump\n        /* \"NDLottery.sol\":3644:3977  function RefundAll() public {... */\n    tag_18:\n      callvalue\n      dup1\n      iszero\n      tag_97\n      jumpi\n      0x00\n      dup1\n      revert\n    tag_97:\n      pop\n      tag_50\n      tag_99\n      jump\t// in\n        /* \"NDLottery.sol\":597:639  uint256 public operatorTotalCommission = 0 */\n    tag_19:\n      callvalue\n      dup1\n      iszero\n      tag_100\n      jumpi\n      0x00\n      dup1\n      revert\n    tag_100:\n      pop\n      tag_33\n      sload(0x02)\n      dup2\n      jump\n        /* \"NDLottery.sol\":4351:4486  function CurrentWinningReward() public view returns (uint256) {... */\n    tag_20:\n      callvalue\n      dup1\n      iszero\n      tag_104\n      jumpi\n      0x00\n      dup1\n      revert\n    tag_104:\n      pop\n      tag_33\n      tag_106\n      jump\t// in\n        /* \"NDLottery.sol\":1583:1696  function getWinningsForAddress(address addr) public view returns (uint256) {... */\n    tag_21:\n      callvalue\n      dup1\n      iszero\n      tag_108\n      jumpi\n      0x00\n      dup1\n      revert\n    tag_108:\n      pop\n      tag_33\n      tag_110\n      calldatasize\n      0x04\n      tag_111\n      jump\t// in\n    tag_110:\n      sub(shl(0xa0, 0x01), 0x01)\n        /* \"NDLottery.sol\":1675:1689  winnings[addr] */\n      and\n        /* \"NDLottery.sol\":1649:1656  uint256 */\n      0x00\n        /* \"NDLottery.sol\":1675:1689  winnings[addr] */\n      swap1\n      dup2\n      mstore\n        /* \"NDLottery.sol\":1675:1683  winnings */\n      0x05\n        /* \"NDLottery.sol\":1675:1689  winnings[addr] */\n      0x20\n      mstore\n      0x40\n      swap1\n      keccak256\n      sload\n      swap1\n        /* \"NDLottery.sol\":1583:1696  function getWinningsForAddress(address addr) public view returns (uint256) {... */\n      jump\n        /* \"NDLottery.sol\":821:864  mapping(address => uint256) public winnings */\n    tag_22:\n      callvalue\n      dup1\n      iszero\n      tag_114\n      jumpi\n      0x00\n      dup1\n      revert\n    tag_114:\n      pop\n      tag_33\n      tag_116\n      calldatasize\n      0x04\n      tag_111\n      jump\t// in\n    tag_116:\n      mstore(0x20, 0x05)\n      0x00\n      swap1\n      dup2\n      mstore\n      0x40\n      swap1\n      keccak256\n      sload\n      dup2\n      jump\n        /* \"NDLottery.sol\":2996:3187  function restartDraw() public {... */\n    tag_23:\n      callvalue\n      dup1\n      iszero\n      tag_119\n      jumpi\n      0x00\n      dup1\n      revert\n    tag_119:\n      pop\n      tag_50\n      tag_121\n      jump\t// in\n        /* \"NDLottery.sol\":677:702  address public lastWinner */\n    tag_24:\n      callvalue\n      dup1\n      iszero\n      tag_122\n      jumpi\n      0x00\n      dup1\n      revert\n    tag_122:\n      pop\n      sload(0x03)\n      tag_65\n      swap1\n      sub(shl(0xa0, 0x01), 0x01)\n      and\n      dup2\n      jump\n        /* \"NDLottery.sol\":3983:4244  function WithdrawCommission() public isOperator {... */\n    tag_51:\n        /* \"NDLottery.sol\":1095:1110  lotteryOperator */\n      and(sub(shl(0xa0, 0x01), 0x01), sload(0x01))\n        /* \"NDLottery.sol\":1081:1091  msg.sender */\n      caller\n        /* \"NDLottery.sol\":1081:1110  msg.sender == lotteryOperator */\n      eq\n        /* \"NDLottery.sol\":1059:1171  require(... */\n      tag_128\n      jumpi\n      mload(0x40)\n      shl(0xe5, 0x461bcd)\n      dup2\n      mstore\n        /* \"#utility.yul\":2006:2008   */\n      0x20\n        /* \"NDLottery.sol\":1059:1171  require(... */\n      0x04\n      dup3\n      add\n        /* \"#utility.yul\":1988:2009   */\n      mstore\n        /* \"#utility.yul\":2045:2047   */\n      0x22\n        /* \"#utility.yul\":2025:2043   */\n      0x24\n      dup3\n      add\n        /* \"#utility.yul\":2018:2048   */\n      mstore\n        /* \"#utility.yul\":2084:2118   */\n      0x43616c6c6572206973206e6f7420746865206c6f7474657279206f7065726174\n        /* \"#utility.yul\":2064:2082   */\n      0x44\n      dup3\n      add\n        /* \"#utility.yul\":2057:2119   */\n      mstore\n      shl(0xf1, 0x37b9)\n        /* \"#utility.yul\":2135:2153   */\n      0x64\n      dup3\n      add\n        /* \"#utility.yul\":2128:2160   */\n      mstore\n        /* \"#utility.yul\":2177:2196   */\n      0x84\n      add\n        /* \"NDLottery.sol\":1059:1171  require(... */\n    tag_129:\n      mload(0x40)\n      dup1\n      swap2\n      sub\n      swap1\n      revert\n    tag_128:\n        /* \"NDLottery.sol\":4128:4151  operatorTotalCommission */\n      0x02\n      dup1\n      sload\n        /* \"NDLottery.sol\":4041:4065  address payable operator */\n      0x00\n        /* \"NDLottery.sol\":4161:4188  operatorTotalCommission = 0 */\n      swap2\n      dup3\n      swap1\n      sstore\n        /* \"NDLottery.sol\":4199:4237  operator.transfer(commission2Transfer) */\n      mload(0x40)\n        /* \"NDLottery.sol\":4076:4086  msg.sender */\n      caller\n      swap3\n      dup4\n      swap2\n        /* \"NDLottery.sol\":4199:4237  operator.transfer(commission2Transfer) */\n      dup4\n      iszero\n      0x08fc\n      mul\n      swap2\n        /* \"NDLottery.sol\":4128:4151  operatorTotalCommission */\n      dup5\n      swap2\n        /* \"NDLottery.sol\":4199:4237  operator.transfer(commission2Transfer) */\n      swap1\n      dup2\n        /* \"NDLottery.sol\":4041:4065  address payable operator */\n      dup2\n        /* \"NDLottery.sol\":4199:4237  operator.transfer(commission2Transfer) */\n      dup2\n        /* \"NDLottery.sol\":4128:4151  operatorTotalCommission */\n      dup6\n        /* \"NDLottery.sol\":4076:4086  msg.sender */\n      dup9\n        /* \"NDLottery.sol\":4199:4237  operator.transfer(commission2Transfer) */\n      dup9\n      call\n      swap4\n      pop\n      pop\n      pop\n      pop\n      iszero\n      dup1\n      iszero\n      tag_133\n      jumpi\n      returndatasize\n      0x00\n      dup1\n      returndatacopy\n      revert(0x00, returndatasize)\n    tag_133:\n      pop\n        /* \"NDLottery.sol\":4031:4244  {... */\n      pop\n      pop\n        /* \"NDLottery.sol\":3983:4244  function WithdrawCommission() public isOperator {... */\n      jump\t// out\n        /* \"NDLottery.sol\":2279:2990  function DrawWinnerTicket() public {... */\n    tag_58:\n        /* \"NDLottery.sol\":2332:2339  tickets */\n      0x06\n        /* \"NDLottery.sol\":2332:2346  tickets.length */\n      sload\n        /* \"NDLottery.sol\":2324:2380  require(tickets.length > 0, \"No tickets were purchased\") */\n      tag_135\n      jumpi\n      mload(0x40)\n      shl(0xe5, 0x461bcd)\n      dup2\n      mstore\n        /* \"#utility.yul\":2409:2411   */\n      0x20\n        /* \"NDLottery.sol\":2324:2380  require(tickets.length > 0, \"No tickets were purchased\") */\n      0x04\n      dup3\n      add\n        /* \"#utility.yul\":2391:2412   */\n      mstore\n        /* \"#utility.yul\":2448:2450   */\n      0x19\n        /* \"#utility.yul\":2428:2446   */\n      0x24\n      dup3\n      add\n        /* \"#utility.yul\":2421:2451   */\n      mstore\n        /* \"#utility.yul\":2487:2514   */\n      0x4e6f207469636b65747320776572652070757263686173656400000000000000\n        /* \"#utility.yul\":2467:2485   */\n      0x44\n      dup3\n      add\n        /* \"#utility.yul\":2460:2515   */\n      mstore\n        /* \"#utility.yul\":2532:2550   */\n      0x64\n      add\n        /* \"NDLottery.sol\":2324:2380  require(tickets.length > 0, \"No tickets were purchased\") */\n      tag_129\n        /* \"#utility.yul\":2207:2556   */\n      jump\n        /* \"NDLottery.sol\":2324:2380  require(tickets.length > 0, \"No tickets were purchased\") */\n    tag_135:\n        /* \"NDLottery.sol\":2436:2443  tickets */\n      0x06\n        /* \"NDLottery.sol\":2436:2450  tickets.length */\n      sload\n        /* \"NDLottery.sol\":2391:2408  bytes32 blockHash */\n      0x00\n      swap1\n        /* \"NDLottery.sol\":2421:2450  block.number - tickets.length */\n      tag_138\n      swap1\n        /* \"NDLottery.sol\":2421:2433  block.number */\n      number\n        /* \"NDLottery.sol\":2421:2450  block.number - tickets.length */\n      tag_139\n      jump\t// in\n    tag_138:\n        /* \"NDLottery.sol\":2515:2559  abi.encodePacked(block.timestamp, blockHash) */\n      0x40\n      dup1\n      mload\n        /* \"NDLottery.sol\":2532:2547  block.timestamp */\n      timestamp\n        /* \"NDLottery.sol\":2515:2559  abi.encodePacked(block.timestamp, blockHash) */\n      0x20\n      dup3\n      add\n        /* \"#utility.yul\":2980:2999   */\n      mstore\n        /* \"NDLottery.sol\":2411:2451  blockhash(block.number - tickets.length) */\n      swap2\n      blockhash\n        /* \"#utility.yul\":3015:3027   */\n      swap1\n      dup3\n      add\n        /* \"#utility.yul\":3008:3036   */\n      dup2\n      swap1\n      mstore\n        /* \"NDLottery.sol\":2411:2451  blockhash(block.number - tickets.length) */\n      swap2\n      pop\n        /* \"NDLottery.sol\":2461:2481  uint256 randomNumber */\n      0x00\n      swap1\n        /* \"#utility.yul\":3052:3064   */\n      0x60\n      add\n        /* \"NDLottery.sol\":2515:2559  abi.encodePacked(block.timestamp, blockHash) */\n      0x40\n      dup1\n      mload\n      not(0x1f)\n      dup2\n      dup5\n      sub\n      add\n      dup2\n      mstore\n      swap2\n      swap1\n      mstore\n        /* \"NDLottery.sol\":2505:2560  keccak256(abi.encodePacked(block.timestamp, blockHash)) */\n      dup1\n      mload\n        /* \"NDLottery.sol\":2515:2559  abi.encodePacked(block.timestamp, blockHash) */\n      0x20\n        /* \"NDLottery.sol\":2505:2560  keccak256(abi.encodePacked(block.timestamp, blockHash)) */\n      swap1\n      swap2\n      add\n      keccak256\n        /* \"NDLottery.sol\":2619:2626  tickets */\n      0x06\n        /* \"NDLottery.sol\":2619:2633  tickets.length */\n      sload\n        /* \"NDLottery.sol\":2505:2560  keccak256(abi.encodePacked(block.timestamp, blockHash)) */\n      swap1\n      swap2\n      pop\n        /* \"NDLottery.sol\":2484:2570  uint256(... */\n      0x00\n      swap1\n        /* \"NDLottery.sol\":2604:2633  randomNumber % tickets.length */\n      tag_142\n      swap1\n        /* \"NDLottery.sol\":2505:2560  keccak256(abi.encodePacked(block.timestamp, blockHash)) */\n      dup4\n        /* \"NDLottery.sol\":2604:2633  randomNumber % tickets.length */\n      tag_143\n      jump\t// in\n    tag_142:\n        /* \"NDLottery.sol\":2580:2633  uint256 winningTicket = randomNumber % tickets.length */\n      swap1\n      pop\n        /* \"NDLottery.sol\":2644:2658  address winner */\n      0x00\n        /* \"NDLottery.sol\":2661:2668  tickets */\n      0x06\n        /* \"NDLottery.sol\":2669:2682  winningTicket */\n      dup3\n        /* \"NDLottery.sol\":2661:2683  tickets[winningTicket] */\n      dup2\n      sload\n      dup2\n      lt\n      tag_145\n      jumpi\n      tag_145\n      tag_146\n      jump\t// in\n    tag_145:\n      0x00\n      swap2\n      dup3\n      mstore\n      0x20\n      swap1\n      swap2\n      keccak256\n      add\n      sload\n        /* \"NDLottery.sol\":2693:2703  lastWinner */\n      0x03\n        /* \"NDLottery.sol\":2693:2712  lastWinner = winner */\n      dup1\n      sload\n      not(0xffffffffffffffffffffffffffffffffffffffff)\n      and\n      sub(shl(0xa0, 0x01), 0x01)\n        /* \"NDLottery.sol\":2661:2683  tickets[winningTicket] */\n      swap1\n      swap3\n      and\n        /* \"NDLottery.sol\":2693:2712  lastWinner = winner */\n      swap2\n      dup3\n      or\n      swap1\n      sstore\n        /* \"NDLottery.sol\":2661:2683  tickets[winningTicket] */\n      swap1\n      pop\n        /* \"NDLottery.sol\":2761:2791  ticketPrice - ticketCommission */\n      tag_148\n        /* \"NDLottery.sol\":318:329  0.001 ether */\n      0x038d7ea4c68000\n        /* \"NDLottery.sol\":185:192  1 ether */\n      0x0de0b6b3a7640000\n        /* \"NDLottery.sol\":2761:2791  ticketPrice - ticketCommission */\n      tag_139\n      jump\t// in\n    tag_148:\n        /* \"NDLottery.sol\":2743:2750  tickets */\n      0x06\n        /* \"NDLottery.sol\":2743:2757  tickets.length */\n      sload\n        /* \"NDLottery.sol\":2743:2792  tickets.length * (ticketPrice - ticketCommission) */\n      tag_149\n      swap2\n      swap1\n      tag_150\n      jump\t// in\n    tag_149:\n      sub(shl(0xa0, 0x01), 0x01)\n        /* \"NDLottery.sol\":2722:2738  winnings[winner] */\n      dup3\n      and\n      0x00\n      swap1\n      dup2\n      mstore\n        /* \"NDLottery.sol\":2722:2730  winnings */\n      0x05\n        /* \"NDLottery.sol\":2722:2738  winnings[winner] */\n      0x20\n      mstore\n      0x40\n      dup2\n      keccak256\n        /* \"NDLottery.sol\":2722:2793  winnings[winner] += (tickets.length * (ticketPrice - ticketCommission)) */\n      dup1\n      sload\n        /* \"NDLottery.sol\":2722:2738  winnings[winner] */\n      swap1\n      swap2\n      swap1\n        /* \"NDLottery.sol\":2722:2793  winnings[winner] += (tickets.length * (ticketPrice - ticketCommission)) */\n      tag_151\n      swap1\n      dup5\n      swap1\n      tag_152\n      jump\t// in\n    tag_151:\n      swap1\n      swap2\n      sstore\n      pop\n      pop\n      sub(shl(0xa0, 0x01), 0x01)\n        /* \"NDLottery.sol\":2822:2838  winnings[winner] */\n      dup2\n      and\n      0x00\n      swap1\n      dup2\n      mstore\n        /* \"NDLottery.sol\":2822:2830  winnings */\n      0x05\n        /* \"NDLottery.sol\":2822:2838  winnings[winner] */\n      0x20\n      mstore\n      0x40\n      swap1\n      keccak256\n      sload\n        /* \"NDLottery.sol\":2803:2819  lastWinnerAmount */\n      0x04\n        /* \"NDLottery.sol\":2803:2838  lastWinnerAmount = winnings[winner] */\n      sstore\n        /* \"NDLottery.sol\":2876:2883  tickets */\n      0x06\n        /* \"NDLottery.sol\":2876:2890  tickets.length */\n      sload\n        /* \"NDLottery.sol\":2876:2909  tickets.length * ticketCommission */\n      tag_153\n      swap1\n        /* \"NDLottery.sol\":318:329  0.001 ether */\n      0x038d7ea4c68000\n      swap1\n        /* \"NDLottery.sol\":2876:2909  tickets.length * ticketCommission */\n      tag_150\n      jump\t// in\n    tag_153:\n        /* \"NDLottery.sol\":2848:2871  operatorTotalCommission */\n      0x02\n      0x00\n        /* \"NDLottery.sol\":2848:2910  operatorTotalCommission += (tickets.length * ticketCommission) */\n      dup3\n      dup3\n      sload\n      tag_154\n      swap2\n      swap1\n      tag_152\n      jump\t// in\n    tag_154:\n      swap1\n      swap2\n      sstore\n      pop\n        /* \"NDLottery.sol\":2920:2934  delete tickets */\n      tag_155\n      swap1\n      pop\n        /* \"NDLottery.sol\":2927:2934  tickets */\n      0x06\n      0x00\n        /* \"NDLottery.sol\":2920:2934  delete tickets */\n      tag_156\n      jump\t// in\n    tag_155:\n        /* \"NDLottery.sol\":2957:2983  block.timestamp + duration */\n      tag_157\n        /* \"NDLottery.sol\":394:401  2 hours */\n      0x1c20\n        /* \"NDLottery.sol\":2957:2972  block.timestamp */\n      timestamp\n        /* \"NDLottery.sol\":2957:2983  block.timestamp + duration */\n      tag_152\n      jump\t// in\n    tag_157:\n        /* \"NDLottery.sol\":2944:2954  expiration */\n      0x00\n        /* \"NDLottery.sol\":2944:2983  expiration = block.timestamp + duration */\n      sstore\n      pop\n      pop\n      pop\n      pop\n        /* \"NDLottery.sol\":2279:2990  function DrawWinnerTicket() public {... */\n      jump\t// out\n        /* \"NDLottery.sol\":1485:1577  function getTickets() public view returns (address[] memory) {... */\n    tag_61:\n        /* \"NDLottery.sol\":1528:1544  address[] memory */\n      0x60\n        /* \"NDLottery.sol\":1563:1570  tickets */\n      0x06\n        /* \"NDLottery.sol\":1556:1570  return tickets */\n      dup1\n      sload\n      dup1\n      0x20\n      mul\n      0x20\n      add\n      mload(0x40)\n      swap1\n      dup2\n      add\n      0x40\n      mstore\n      dup1\n      swap3\n      swap2\n      swap1\n      dup2\n      dup2\n      mstore\n      0x20\n      add\n      dup3\n      dup1\n      sload\n      dup1\n      iszero\n      tag_159\n      jumpi\n      0x20\n      mul\n      dup3\n      add\n      swap2\n      swap1\n      0x00\n      mstore\n      keccak256(0x00, 0x20)\n      swap1\n    tag_160:\n      dup2\n      sload\n      sub(shl(0xa0, 0x01), 0x01)\n      and\n      dup2\n      mstore\n      0x01\n      swap1\n      swap2\n      add\n      swap1\n      0x20\n      add\n      dup1\n      dup4\n      gt\n      tag_160\n      jumpi\n    tag_159:\n      pop\n      pop\n      pop\n      pop\n      pop\n      swap1\n      pop\n        /* \"NDLottery.sol\":1485:1577  function getTickets() public view returns (address[] memory) {... */\n      swap1\n      jump\t// out\n        /* \"NDLottery.sol\":908:932  address[] public tickets */\n    tag_68:\n      0x06\n      dup2\n      dup2\n      sload\n      dup2\n      lt\n      tag_161\n      jumpi\n      0x00\n      dup1\n      revert\n    tag_161:\n      0x00\n      swap2\n      dup3\n      mstore\n      0x20\n      swap1\n      swap2\n      keccak256\n      add\n      sload\n      sub(shl(0xa0, 0x01), 0x01)\n      and\n      swap1\n      pop\n      dup2\n      jump\t// out\n        /* \"NDLottery.sol\":3407:3638  function WithdrawWinnings() public isWinner {... */\n    tag_81:\n        /* \"NDLottery.sol\":4323:4333  msg.sender */\n      caller\n        /* \"NDLottery.sol\":4291:4295  bool */\n      0x00\n        /* \"NDLottery.sol\":4314:4334  winnings[msg.sender] */\n      swap1\n      dup2\n      mstore\n        /* \"NDLottery.sol\":4314:4322  winnings */\n      0x05\n        /* \"NDLottery.sol\":4314:4334  winnings[msg.sender] */\n      0x20\n      mstore\n      0x40\n      swap1\n      keccak256\n      sload\n        /* \"NDLottery.sol\":1272:1317  require(IsWinner(), \"Caller is not a winner\") */\n      tag_165\n      jumpi\n      mload(0x40)\n      shl(0xe5, 0x461bcd)\n      dup2\n      mstore\n        /* \"#utility.yul\":3964:3966   */\n      0x20\n        /* \"NDLottery.sol\":1272:1317  require(IsWinner(), \"Caller is not a winner\") */\n      0x04\n      dup3\n      add\n        /* \"#utility.yul\":3946:3967   */\n      mstore\n        /* \"#utility.yul\":4003:4005   */\n      0x16\n        /* \"#utility.yul\":3983:4001   */\n      0x24\n      dup3\n      add\n        /* \"#utility.yul\":3976:4006   */\n      mstore\n        /* \"#utility.yul\":4042:4066   */\n      0x43616c6c6572206973206e6f7420612077696e6e657200000000000000000000\n        /* \"#utility.yul\":4022:4040   */\n      0x44\n      dup3\n      add\n        /* \"#utility.yul\":4015:4067   */\n      mstore\n        /* \"#utility.yul\":4084:4102   */\n      0x64\n      add\n        /* \"NDLottery.sol\":1272:1317  require(IsWinner(), \"Caller is not a winner\") */\n      tag_129\n        /* \"#utility.yul\":3762:4108   */\n      jump\n        /* \"NDLottery.sol\":1272:1317  require(IsWinner(), \"Caller is not a winner\") */\n    tag_165:\n        /* \"NDLottery.sol\":3494:3504  msg.sender */\n      caller\n        /* \"NDLottery.sol\":3461:3483  address payable winner */\n      0x00\n        /* \"NDLottery.sol\":3542:3558  winnings[winner] */\n      dup2\n      dup2\n      mstore\n        /* \"NDLottery.sol\":3542:3550  winnings */\n      0x05\n        /* \"NDLottery.sol\":3542:3558  winnings[winner] */\n      0x20\n      mstore\n      0x40\n      dup1\n      dup3\n      keccak256\n      dup1\n      sload\n        /* \"NDLottery.sol\":3568:3588  winnings[winner] = 0 */\n      swap1\n      dup4\n      swap1\n      sstore\n        /* \"NDLottery.sol\":3599:3631  winner.transfer(reward2Transfer) */\n      swap1\n      mload\n        /* \"NDLottery.sol\":3542:3558  winnings[winner] */\n      swap1\n      swap2\n        /* \"NDLottery.sol\":3494:3504  msg.sender */\n      dup4\n      swap2\n        /* \"NDLottery.sol\":3599:3631  winner.transfer(reward2Transfer) */\n      dup4\n      iszero\n      0x08fc\n      mul\n      swap2\n        /* \"NDLottery.sol\":3542:3558  winnings[winner] */\n      dup5\n      swap2\n        /* \"NDLottery.sol\":3599:3631  winner.transfer(reward2Transfer) */\n      swap1\n      dup2\n        /* \"NDLottery.sol\":3461:3483  address payable winner */\n      dup2\n        /* \"NDLottery.sol\":3599:3631  winner.transfer(reward2Transfer) */\n      dup2\n        /* \"NDLottery.sol\":3542:3558  winnings[winner] */\n      dup6\n        /* \"NDLottery.sol\":3494:3504  msg.sender */\n      dup9\n        /* \"NDLottery.sol\":3599:3631  winner.transfer(reward2Transfer) */\n      dup9\n      call\n      swap4\n      pop\n      pop\n      pop\n      pop\n      iszero\n      dup1\n      iszero\n      tag_133\n      jumpi\n      returndatasize\n      0x00\n      dup1\n      returndatacopy\n      revert(0x00, returndatasize)\n        /* \"NDLottery.sol\":1702:2273  function BuyTickets() public payable {... */\n    tag_83:\n        /* \"NDLottery.sol\":1770:1793  msg.value % ticketPrice */\n      tag_172\n        /* \"NDLottery.sol\":185:192  1 ether */\n      0x0de0b6b3a7640000\n        /* \"NDLottery.sol\":1770:1779  msg.value */\n      callvalue\n        /* \"NDLottery.sol\":1770:1793  msg.value % ticketPrice */\n      tag_143\n      jump\t// in\n    tag_172:\n        /* \"NDLottery.sol\":1770:1798  msg.value % ticketPrice == 0 */\n      iszero\n        /* \"NDLottery.sol\":1893:1922  Strings.toString(ticketPrice) */\n      tag_173\n        /* \"NDLottery.sol\":185:192  1 ether */\n      0x0de0b6b3a7640000\n        /* \"NDLottery.sol\":1893:1909  Strings.toString */\n      tag_174\n        /* \"NDLottery.sol\":1893:1922  Strings.toString(ticketPrice) */\n      jump\t// in\n    tag_173:\n        /* \"NDLottery.sol\":1812:1962  string.concat(... */\n      add(0x20, mload(0x40))\n      tag_175\n      swap2\n      swap1\n      tag_176\n      jump\t// in\n    tag_175:\n      mload(0x40)\n      0x20\n      dup2\n      dup4\n      sub\n      sub\n      dup2\n      mstore\n      swap1\n      0x40\n      mstore\n        /* \"NDLottery.sol\":1749:1972  require(... */\n      swap1\n      tag_177\n      jumpi\n      mload(0x40)\n      shl(0xe5, 0x461bcd)\n      dup2\n      mstore\n      0x04\n      add\n      tag_129\n      swap2\n      swap1\n      tag_179\n      jump\t// in\n    tag_177:\n      pop\n        /* \"NDLottery.sol\":1982:2007  uint256 numOfTicketsToBuy */\n      0x00\n        /* \"NDLottery.sol\":2010:2033  msg.value / ticketPrice */\n      tag_180\n        /* \"NDLottery.sol\":185:192  1 ether */\n      0x0de0b6b3a7640000\n        /* \"NDLottery.sol\":2010:2019  msg.value */\n      callvalue\n        /* \"NDLottery.sol\":2010:2033  msg.value / ticketPrice */\n      tag_181\n      jump\t// in\n    tag_180:\n        /* \"NDLottery.sol\":1982:2033  uint256 numOfTicketsToBuy = msg.value / ticketPrice */\n      swap1\n      pop\n        /* \"NDLottery.sol\":2086:2104  RemainingTickets() */\n      tag_182\n        /* \"NDLottery.sol\":2086:2102  RemainingTickets */\n      tag_86\n        /* \"NDLottery.sol\":2086:2104  RemainingTickets() */\n      jump\t// in\n    tag_182:\n        /* \"NDLottery.sol\":2065:2082  numOfTicketsToBuy */\n      dup2\n        /* \"NDLottery.sol\":2065:2104  numOfTicketsToBuy <= RemainingTickets() */\n      gt\n      iszero\n        /* \"NDLottery.sol\":2044:2159  require(... */\n      tag_183\n      jumpi\n      mload(0x40)\n      shl(0xe5, 0x461bcd)\n      dup2\n      mstore\n        /* \"#utility.yul\":5684:5686   */\n      0x20\n        /* \"NDLottery.sol\":2044:2159  require(... */\n      0x04\n      dup3\n      add\n        /* \"#utility.yul\":5666:5687   */\n      mstore\n        /* \"#utility.yul\":5723:5725   */\n      0x1d\n        /* \"#utility.yul\":5703:5721   */\n      0x24\n      dup3\n      add\n        /* \"#utility.yul\":5696:5726   */\n      mstore\n        /* \"#utility.yul\":5762:5793   */\n      0x4e6f7420656e6f756768207469636b65747320617661696c61626c652e000000\n        /* \"#utility.yul\":5742:5760   */\n      0x44\n      dup3\n      add\n        /* \"#utility.yul\":5735:5794   */\n      mstore\n        /* \"#utility.yul\":5811:5829   */\n      0x64\n      add\n        /* \"NDLottery.sol\":2044:2159  require(... */\n      tag_129\n        /* \"#utility.yul\":5482:5835   */\n      jump\n        /* \"NDLottery.sol\":2044:2159  require(... */\n    tag_183:\n        /* \"NDLottery.sol\":2175:2184  uint256 i */\n      0x00\n        /* \"NDLottery.sol\":2170:2267  for (uint256 i = 0; i < numOfTicketsToBuy; i++) {... */\n    tag_186:\n        /* \"NDLottery.sol\":2194:2211  numOfTicketsToBuy */\n      dup2\n        /* \"NDLottery.sol\":2190:2191  i */\n      dup2\n        /* \"NDLottery.sol\":2190:2211  i < numOfTicketsToBuy */\n      lt\n        /* \"NDLottery.sol\":2170:2267  for (uint256 i = 0; i < numOfTicketsToBuy; i++) {... */\n      iszero\n      tag_187\n      jumpi\n        /* \"NDLottery.sol\":2232:2239  tickets */\n      0x06\n        /* \"NDLottery.sol\":2232:2256  tickets.push(msg.sender) */\n      dup1\n      sload\n      0x01\n      dup2\n      add\n      dup3\n      sstore\n      0x00\n      swap2\n      swap1\n      swap2\n      mstore\n      0xf652222313e28459528d920b65115c16c04f3efc82aaedc97be59f3f377c0d3f\n      add\n      dup1\n      sload\n      not(0xffffffffffffffffffffffffffffffffffffffff)\n      and\n        /* \"NDLottery.sol\":2245:2255  msg.sender */\n      caller\n        /* \"NDLottery.sol\":2232:2256  tickets.push(msg.sender) */\n      or\n      swap1\n      sstore\n        /* \"NDLottery.sol\":2213:2216  i++ */\n      dup1\n      tag_190\n      dup2\n      tag_191\n      jump\t// in\n    tag_190:\n      swap2\n      pop\n      pop\n        /* \"NDLottery.sol\":2170:2267  for (uint256 i = 0; i < numOfTicketsToBuy; i++) {... */\n      jump(tag_186)\n    tag_187:\n      pop\n        /* \"NDLottery.sol\":1739:2273  {... */\n      pop\n        /* \"NDLottery.sol\":1702:2273  function BuyTickets() public payable {... */\n      jump\t// out\n        /* \"NDLottery.sol\":4492:4601  function RemainingTickets() public view returns (uint256) {... */\n    tag_86:\n        /* \"NDLottery.sol\":4580:4587  tickets */\n      0x06\n        /* \"NDLottery.sol\":4580:4594  tickets.length */\n      sload\n        /* \"NDLottery.sol\":4541:4548  uint256 */\n      0x00\n      swap1\n        /* \"NDLottery.sol\":4567:4594  maxTickets - tickets.length */\n      tag_193\n      swap1\n        /* \"NDLottery.sol\":235:238  100 */\n      0x64\n        /* \"NDLottery.sol\":4567:4594  maxTickets - tickets.length */\n      tag_139\n      jump\t// in\n    tag_193:\n        /* \"NDLottery.sol\":4560:4594  return maxTickets - tickets.length */\n      swap1\n      pop\n        /* \"NDLottery.sol\":4492:4601  function RemainingTickets() public view returns (uint256) {... */\n      swap1\n      jump\t// out\n        /* \"NDLottery.sol\":3644:3977  function RefundAll() public {... */\n    tag_99:\n        /* \"NDLottery.sol\":3709:3719  expiration */\n      sload(0x00)\n        /* \"NDLottery.sol\":3690:3705  block.timestamp */\n      timestamp\n        /* \"NDLottery.sol\":3690:3719  block.timestamp >= expiration */\n      lt\n      iszero\n        /* \"NDLottery.sol\":3682:3751  require(block.timestamp >= expiration, \"the lottery not expired yet\") */\n      tag_196\n      jumpi\n      mload(0x40)\n      shl(0xe5, 0x461bcd)\n      dup2\n      mstore\n        /* \"#utility.yul\":6182:6184   */\n      0x20\n        /* \"NDLottery.sol\":3682:3751  require(block.timestamp >= expiration, \"the lottery not expired yet\") */\n      0x04\n      dup3\n      add\n        /* \"#utility.yul\":6164:6185   */\n      mstore\n        /* \"#utility.yul\":6221:6223   */\n      0x1b\n        /* \"#utility.yul\":6201:6219   */\n      0x24\n      dup3\n      add\n        /* \"#utility.yul\":6194:6224   */\n      mstore\n        /* \"#utility.yul\":6260:6289   */\n      0x746865206c6f7474657279206e6f742065787069726564207965740000000000\n        /* \"#utility.yul\":6240:6258   */\n      0x44\n      dup3\n      add\n        /* \"#utility.yul\":6233:6290   */\n      mstore\n        /* \"#utility.yul\":6307:6325   */\n      0x64\n      add\n        /* \"NDLottery.sol\":3682:3751  require(block.timestamp >= expiration, \"the lottery not expired yet\") */\n      tag_129\n        /* \"#utility.yul\":5980:6331   */\n      jump\n        /* \"NDLottery.sol\":3682:3751  require(block.timestamp >= expiration, \"the lottery not expired yet\") */\n    tag_196:\n        /* \"NDLottery.sol\":3767:3776  uint256 i */\n      0x00\n        /* \"NDLottery.sol\":3762:3947  for (uint256 i = 0; i < tickets.length; i++) {... */\n    tag_199:\n        /* \"NDLottery.sol\":3786:3793  tickets */\n      0x06\n        /* \"NDLottery.sol\":3786:3800  tickets.length */\n      sload\n        /* \"NDLottery.sol\":3782:3800  i < tickets.length */\n      dup2\n      lt\n        /* \"NDLottery.sol\":3762:3947  for (uint256 i = 0; i < tickets.length; i++) {... */\n      iszero\n      tag_200\n      jumpi\n        /* \"NDLottery.sol\":3821:3839  address payable to */\n      0x00\n        /* \"NDLottery.sol\":3850:3857  tickets */\n      0x06\n        /* \"NDLottery.sol\":3858:3859  i */\n      dup3\n        /* \"NDLottery.sol\":3850:3860  tickets[i] */\n      dup2\n      sload\n      dup2\n      lt\n      tag_203\n      jumpi\n      tag_203\n      tag_146\n      jump\t// in\n    tag_203:\n      0x00\n      swap2\n      dup3\n      mstore\n      0x20\n      dup3\n      keccak256\n      add\n      sload\n        /* \"NDLottery.sol\":3875:3882  tickets */\n      0x06\n        /* \"NDLottery.sol\":3875:3885  tickets[i] */\n      dup1\n      sload\n      sub(shl(0xa0, 0x01), 0x01)\n        /* \"NDLottery.sol\":3850:3860  tickets[i] */\n      swap1\n      swap3\n      and\n      swap4\n      pop\n        /* \"NDLottery.sol\":3875:3882  tickets */\n      swap1\n        /* \"NDLottery.sol\":3883:3884  i */\n      dup5\n      swap1\n        /* \"NDLottery.sol\":3875:3885  tickets[i] */\n      dup2\n      lt\n      tag_206\n      jumpi\n      tag_206\n      tag_146\n      jump\t// in\n    tag_206:\n      0x00\n      swap2\n      dup3\n      mstore\n      0x20\n      dup3\n      keccak256\n      add\n        /* \"NDLottery.sol\":3875:3898  tickets[i] = address(0) */\n      dup1\n      sload\n      not(0xffffffffffffffffffffffffffffffffffffffff)\n      and\n      sub(shl(0xa0, 0x01), 0x01)\n      swap4\n      dup5\n      and\n      or\n      swap1\n      sstore\n        /* \"NDLottery.sol\":3912:3936  to.transfer(ticketPrice) */\n      mload(0x40)\n        /* \"NDLottery.sol\":3912:3923  to.transfer */\n      swap2\n      dup4\n      and\n      swap2\n        /* \"NDLottery.sol\":185:192  1 ether */\n      0x0de0b6b3a7640000\n      swap1\n        /* \"NDLottery.sol\":3875:3885  tickets[i] */\n      dup3\n        /* \"NDLottery.sol\":3912:3936  to.transfer(ticketPrice) */\n      dup2\n        /* \"NDLottery.sol\":3875:3885  tickets[i] */\n      dup2\n        /* \"NDLottery.sol\":3912:3936  to.transfer(ticketPrice) */\n      dup2\n        /* \"NDLottery.sol\":185:192  1 ether */\n      dup6\n        /* \"NDLottery.sol\":3912:3923  to.transfer */\n      dup9\n        /* \"NDLottery.sol\":3875:3885  tickets[i] */\n      dup4\n        /* \"NDLottery.sol\":3912:3936  to.transfer(ticketPrice) */\n      call\n      swap4\n      pop\n      pop\n      pop\n      pop\n      iszero\n      dup1\n      iszero\n      tag_209\n      jumpi\n      returndatasize\n      0x00\n      dup1\n      returndatacopy\n      revert(0x00, returndatasize)\n    tag_209:\n      pop\n        /* \"NDLottery.sol\":3807:3947  {... */\n      pop\n        /* \"NDLottery.sol\":3802:3805  i++ */\n      dup1\n      dup1\n      tag_210\n      swap1\n      tag_191\n      jump\t// in\n    tag_210:\n      swap2\n      pop\n      pop\n        /* \"NDLottery.sol\":3762:3947  for (uint256 i = 0; i < tickets.length; i++) {... */\n      jump(tag_199)\n    tag_200:\n      pop\n        /* \"NDLottery.sol\":3956:3970  delete tickets */\n      tag_211\n        /* \"NDLottery.sol\":3963:3970  tickets */\n      0x06\n      0x00\n        /* \"NDLottery.sol\":3956:3970  delete tickets */\n      tag_156\n      jump\t// in\n    tag_211:\n        /* \"NDLottery.sol\":3644:3977  function RefundAll() public {... */\n      jump\t// out\n        /* \"NDLottery.sol\":4351:4486  function CurrentWinningReward() public view returns (uint256) {... */\n    tag_106:\n        /* \"NDLottery.sol\":4404:4411  uint256 */\n      0x00\n        /* \"NDLottery.sol\":4448:4478  ticketPrice - ticketCommission */\n      tag_213\n        /* \"NDLottery.sol\":318:329  0.001 ether */\n      0x038d7ea4c68000\n        /* \"NDLottery.sol\":185:192  1 ether */\n      0x0de0b6b3a7640000\n        /* \"NDLottery.sol\":4448:4478  ticketPrice - ticketCommission */\n      tag_139\n      jump\t// in\n    tag_213:\n        /* \"NDLottery.sol\":4430:4437  tickets */\n      0x06\n        /* \"NDLottery.sol\":4430:4444  tickets.length */\n      sload\n        /* \"NDLottery.sol\":4430:4479  tickets.length * (ticketPrice - ticketCommission) */\n      tag_193\n      swap2\n      swap1\n      tag_150\n      jump\t// in\n        /* \"NDLottery.sol\":2996:3187  function restartDraw() public {... */\n    tag_121:\n        /* \"NDLottery.sol\":3044:3051  tickets */\n      0x06\n        /* \"NDLottery.sol\":3044:3058  tickets.length */\n      sload\n        /* \"NDLottery.sol\":3044:3063  tickets.length == 0 */\n      iszero\n        /* \"NDLottery.sol\":3036:3106  require(tickets.length == 0, \"Cannot Restart Draw as Draw is in play\") */\n      tag_217\n      jumpi\n      mload(0x40)\n      shl(0xe5, 0x461bcd)\n      dup2\n      mstore\n        /* \"#utility.yul\":6538:6540   */\n      0x20\n        /* \"NDLottery.sol\":3036:3106  require(tickets.length == 0, \"Cannot Restart Draw as Draw is in play\") */\n      0x04\n      dup3\n      add\n        /* \"#utility.yul\":6520:6541   */\n      mstore\n        /* \"#utility.yul\":6577:6579   */\n      0x26\n        /* \"#utility.yul\":6557:6575   */\n      0x24\n      dup3\n      add\n        /* \"#utility.yul\":6550:6580   */\n      mstore\n        /* \"#utility.yul\":6616:6650   */\n      0x43616e6e6f742052657374617274204472617720617320447261772069732069\n        /* \"#utility.yul\":6596:6614   */\n      0x44\n      dup3\n      add\n        /* \"#utility.yul\":6589:6651   */\n      mstore\n        /* \"#utility.yul\":6687:6695   */\n      0x6e20706c61790000000000000000000000000000000000000000000000000000\n        /* \"#utility.yul\":6667:6685   */\n      0x64\n      dup3\n      add\n        /* \"#utility.yul\":6660:6696   */\n      mstore\n        /* \"#utility.yul\":6713:6732   */\n      0x84\n      add\n        /* \"NDLottery.sol\":3036:3106  require(tickets.length == 0, \"Cannot Restart Draw as Draw is in play\") */\n      tag_129\n        /* \"#utility.yul\":6336:6738   */\n      jump\n        /* \"NDLottery.sol\":3036:3106  require(tickets.length == 0, \"Cannot Restart Draw as Draw is in play\") */\n    tag_217:\n        /* \"NDLottery.sol\":3117:3131  delete tickets */\n      tag_220\n        /* \"NDLottery.sol\":3124:3131  tickets */\n      0x06\n      0x00\n        /* \"NDLottery.sol\":3117:3131  delete tickets */\n      tag_156\n      jump\t// in\n    tag_220:\n        /* \"NDLottery.sol\":3154:3180  block.timestamp + duration */\n      tag_221\n        /* \"NDLottery.sol\":394:401  2 hours */\n      0x1c20\n        /* \"NDLottery.sol\":3154:3169  block.timestamp */\n      timestamp\n        /* \"NDLottery.sol\":3154:3180  block.timestamp + duration */\n      tag_152\n      jump\t// in\n    tag_221:\n        /* \"NDLottery.sol\":3141:3151  expiration */\n      0x00\n        /* \"NDLottery.sol\":3141:3180  expiration = block.timestamp + duration */\n      sstore\n        /* \"NDLottery.sol\":2996:3187  function restartDraw() public {... */\n      jump\t// out\n        /* \"@openzeppelin/contracts/utils/Strings.sol\":392:1095   */\n    tag_174:\n        /* \"@openzeppelin/contracts/utils/Strings.sol\":448:461   */\n      0x60\n        /* \"@openzeppelin/contracts/utils/Strings.sol\":665:670   */\n      dup2\n        /* \"@openzeppelin/contracts/utils/Strings.sol\":674:675   */\n      0x00\n        /* \"@openzeppelin/contracts/utils/Strings.sol\":665:675   */\n      sub\n        /* \"@openzeppelin/contracts/utils/Strings.sol\":661:712   */\n      tag_223\n      jumpi\n      pop\n      pop\n        /* \"@openzeppelin/contracts/utils/Strings.sol\":691:701   */\n      0x40\n      dup1\n      mload\n      dup1\n      dup3\n      add\n      swap1\n      swap2\n      mstore\n      0x01\n      dup2\n      mstore\n      shl(0xfc, 0x03)\n      0x20\n      dup3\n      add\n      mstore\n      swap1\n        /* \"@openzeppelin/contracts/utils/Strings.sol\":392:1095   */\n      jump\t// out\n        /* \"@openzeppelin/contracts/utils/Strings.sol\":661:712   */\n    tag_223:\n        /* \"@openzeppelin/contracts/utils/Strings.sol\":736:741   */\n      dup2\n        /* \"@openzeppelin/contracts/utils/Strings.sol\":721:733   */\n      0x00\n        /* \"@openzeppelin/contracts/utils/Strings.sol\":775:850   */\n    tag_224:\n        /* \"@openzeppelin/contracts/utils/Strings.sol\":782:791   */\n      dup2\n      iszero\n        /* \"@openzeppelin/contracts/utils/Strings.sol\":775:850   */\n      tag_225\n      jumpi\n        /* \"@openzeppelin/contracts/utils/Strings.sol\":807:815   */\n      dup1\n      tag_226\n      dup2\n      tag_191\n      jump\t// in\n    tag_226:\n      swap2\n      pop\n        /* \"@openzeppelin/contracts/utils/Strings.sol\":829:839   */\n      tag_227\n      swap1\n      pop\n        /* \"@openzeppelin/contracts/utils/Strings.sol\":837:839   */\n      0x0a\n        /* \"@openzeppelin/contracts/utils/Strings.sol\":829:839   */\n      dup4\n      tag_181\n      jump\t// in\n    tag_227:\n      swap2\n      pop\n        /* \"@openzeppelin/contracts/utils/Strings.sol\":775:850   */\n      jump(tag_224)\n    tag_225:\n        /* \"@openzeppelin/contracts/utils/Strings.sol\":859:878   */\n      0x00\n        /* \"@openzeppelin/contracts/utils/Strings.sol\":891:897   */\n      dup2\n        /* \"@openzeppelin/contracts/utils/Strings.sol\":881:898   */\n      0xffffffffffffffff\n      dup2\n      gt\n      iszero\n      tag_229\n      jumpi\n      tag_229\n      tag_230\n      jump\t// in\n    tag_229:\n      mload(0x40)\n      swap1\n      dup1\n      dup3\n      mstore\n      dup1\n      0x1f\n      add\n      not(0x1f)\n      and\n      0x20\n      add\n      dup3\n      add\n      0x40\n      mstore\n      dup1\n      iszero\n      tag_231\n      jumpi\n      0x20\n      dup3\n      add\n      dup2\n      dup1\n      calldatasize\n      dup4\n      calldatacopy\n      add\n      swap1\n      pop\n    tag_231:\n      pop\n        /* \"@openzeppelin/contracts/utils/Strings.sol\":859:898   */\n      swap1\n      pop\n        /* \"@openzeppelin/contracts/utils/Strings.sol\":908:1058   */\n    tag_232:\n        /* \"@openzeppelin/contracts/utils/Strings.sol\":915:925   */\n      dup5\n      iszero\n        /* \"@openzeppelin/contracts/utils/Strings.sol\":908:1058   */\n      tag_233\n      jumpi\n        /* \"@openzeppelin/contracts/utils/Strings.sol\":941:952   */\n      tag_234\n        /* \"@openzeppelin/contracts/utils/Strings.sol\":951:952   */\n      0x01\n        /* \"@openzeppelin/contracts/utils/Strings.sol\":941:952   */\n      dup4\n      tag_139\n      jump\t// in\n    tag_234:\n      swap2\n      pop\n        /* \"@openzeppelin/contracts/utils/Strings.sol\":1009:1019   */\n      tag_235\n        /* \"@openzeppelin/contracts/utils/Strings.sol\":1017:1019   */\n      0x0a\n        /* \"@openzeppelin/contracts/utils/Strings.sol\":1009:1014   */\n      dup7\n        /* \"@openzeppelin/contracts/utils/Strings.sol\":1009:1019   */\n      tag_143\n      jump\t// in\n    tag_235:\n        /* \"@openzeppelin/contracts/utils/Strings.sol\":996:1020   */\n      tag_236\n      swap1\n        /* \"@openzeppelin/contracts/utils/Strings.sol\":996:998   */\n      0x30\n        /* \"@openzeppelin/contracts/utils/Strings.sol\":996:1020   */\n      tag_152\n      jump\t// in\n    tag_236:\n        /* \"@openzeppelin/contracts/utils/Strings.sol\":983:1022   */\n      0xf8\n      shl\n        /* \"@openzeppelin/contracts/utils/Strings.sol\":966:972   */\n      dup2\n        /* \"@openzeppelin/contracts/utils/Strings.sol\":973:979   */\n      dup4\n        /* \"@openzeppelin/contracts/utils/Strings.sol\":966:980   */\n      dup2\n      mload\n      dup2\n      lt\n      tag_238\n      jumpi\n      tag_238\n      tag_146\n      jump\t// in\n    tag_238:\n      0x20\n      add\n      add\n        /* \"@openzeppelin/contracts/utils/Strings.sol\":966:1022   */\n      swap1\n      not(0xffffffffffffffffffffffffffffffffffffffffffffffffffffffffffffff)\n      and\n      swap1\n      dup2\n      0x00\n      byte\n      swap1\n      mstore8\n      pop\n        /* \"@openzeppelin/contracts/utils/Strings.sol\":1036:1047   */\n      tag_239\n        /* \"@openzeppelin/contracts/utils/Strings.sol\":1045:1047   */\n      0x0a\n        /* \"@openzeppelin/contracts/utils/Strings.sol\":1036:1047   */\n      dup7\n      tag_181\n      jump\t// in\n    tag_239:\n      swap5\n      pop\n        /* \"@openzeppelin/contracts/utils/Strings.sol\":908:1058   */\n      jump(tag_232)\n    tag_233:\n        /* \"@openzeppelin/contracts/utils/Strings.sol\":1081:1087   */\n      swap5\n        /* \"@openzeppelin/contracts/utils/Strings.sol\":392:1095   */\n      swap4\n      pop\n      pop\n      pop\n      pop\n      jump\t// out\n    tag_156:\n      pop\n      dup1\n      sload\n      0x00\n      dup3\n      sstore\n      swap1\n      0x00\n      mstore\n      keccak256(0x00, 0x20)\n      swap1\n      dup2\n      add\n      swap1\n      tag_241\n      swap2\n      swap1\n      tag_242\n      jump\t// in\n    tag_241:\n      pop\n      jump\t// out\n    tag_242:\n    tag_243:\n      dup1\n      dup3\n      gt\n      iszero\n      tag_244\n      jumpi\n      0x00\n      dup2\n      sstore\n      0x01\n      add\n      jump(tag_243)\n    tag_244:\n      pop\n      swap1\n      jump\t// out\n        /* \"#utility.yul\":196:877   */\n    tag_63:\n        /* \"#utility.yul\":367:369   */\n      0x20\n        /* \"#utility.yul\":419:440   */\n      dup1\n      dup3\n      mstore\n        /* \"#utility.yul\":489:502   */\n      dup3\n      mload\n        /* \"#utility.yul\":392:410   */\n      dup3\n      dup3\n      add\n        /* \"#utility.yul\":511:533   */\n      dup2\n      swap1\n      mstore\n        /* \"#utility.yul\":338:342   */\n      0x00\n      swap2\n        /* \"#utility.yul\":367:369   */\n      swap1\n        /* \"#utility.yul\":590:605   */\n      dup5\n      dup3\n      add\n      swap1\n        /* \"#utility.yul\":564:566   */\n      0x40\n        /* \"#utility.yul\":549:567   */\n      dup6\n      add\n      swap1\n        /* \"#utility.yul\":338:342   */\n      dup5\n        /* \"#utility.yul\":633:851   */\n    tag_251:\n        /* \"#utility.yul\":647:653   */\n      dup2\n        /* \"#utility.yul\":644:645   */\n      dup2\n        /* \"#utility.yul\":641:654   */\n      lt\n        /* \"#utility.yul\":633:851   */\n      iszero\n      tag_253\n      jumpi\n        /* \"#utility.yul\":712:725   */\n      dup4\n      mload\n      sub(shl(0xa0, 0x01), 0x01)\n        /* \"#utility.yul\":708:770   */\n      and\n        /* \"#utility.yul\":696:771   */\n      dup4\n      mstore\n        /* \"#utility.yul\":826:841   */\n      swap3\n      dup5\n      add\n      swap3\n        /* \"#utility.yul\":791:803   */\n      swap2\n      dup5\n      add\n      swap2\n        /* \"#utility.yul\":669:670   */\n      0x01\n        /* \"#utility.yul\":662:671   */\n      add\n        /* \"#utility.yul\":633:851   */\n      jump(tag_251)\n    tag_253:\n      pop\n        /* \"#utility.yul\":868:871   */\n      swap1\n      swap7\n        /* \"#utility.yul\":196:877   */\n      swap6\n      pop\n      pop\n      pop\n      pop\n      pop\n      pop\n      jump\t// out\n        /* \"#utility.yul\":882:1062   */\n    tag_67:\n        /* \"#utility.yul\":941:947   */\n      0x00\n        /* \"#utility.yul\":994:996   */\n      0x20\n        /* \"#utility.yul\":982:991   */\n      dup3\n        /* \"#utility.yul\":973:980   */\n      dup5\n        /* \"#utility.yul\":969:992   */\n      sub\n        /* \"#utility.yul\":965:997   */\n      slt\n        /* \"#utility.yul\":962:1014   */\n      iszero\n      tag_255\n      jumpi\n        /* \"#utility.yul\":1010:1011   */\n      0x00\n        /* \"#utility.yul\":1007:1008   */\n      dup1\n        /* \"#utility.yul\":1000:1012   */\n      revert\n        /* \"#utility.yul\":962:1014   */\n    tag_255:\n      pop\n        /* \"#utility.yul\":1033:1056   */\n      calldataload\n      swap2\n        /* \"#utility.yul\":882:1062   */\n      swap1\n      pop\n      jump\t// out\n        /* \"#utility.yul\":1490:1799   */\n    tag_111:\n        /* \"#utility.yul\":1549:1555   */\n      0x00\n        /* \"#utility.yul\":1602:1604   */\n      0x20\n        /* \"#utility.yul\":1590:1599   */\n      dup3\n        /* \"#utility.yul\":1581:1588   */\n      dup5\n        /* \"#utility.yul\":1577:1600   */\n      sub\n        /* \"#utility.yul\":1573:1605   */\n      slt\n        /* \"#utility.yul\":1570:1622   */\n      iszero\n      tag_259\n      jumpi\n        /* \"#utility.yul\":1618:1619   */\n      0x00\n        /* \"#utility.yul\":1615:1616   */\n      dup1\n        /* \"#utility.yul\":1608:1620   */\n      revert\n        /* \"#utility.yul\":1570:1622   */\n    tag_259:\n        /* \"#utility.yul\":1657:1666   */\n      dup2\n        /* \"#utility.yul\":1644:1667   */\n      calldataload\n      sub(shl(0xa0, 0x01), 0x01)\n        /* \"#utility.yul\":1700:1705   */\n      dup2\n        /* \"#utility.yul\":1696:1750   */\n      and\n        /* \"#utility.yul\":1689:1694   */\n      dup2\n        /* \"#utility.yul\":1686:1751   */\n      eq\n        /* \"#utility.yul\":1676:1769   */\n      tag_260\n      jumpi\n        /* \"#utility.yul\":1765:1766   */\n      0x00\n        /* \"#utility.yul\":1762:1763   */\n      dup1\n        /* \"#utility.yul\":1755:1767   */\n      revert\n        /* \"#utility.yul\":1676:1769   */\n    tag_260:\n        /* \"#utility.yul\":1788:1793   */\n      swap4\n        /* \"#utility.yul\":1490:1799   */\n      swap3\n      pop\n      pop\n      pop\n      jump\t// out\n        /* \"#utility.yul\":2561:2688   */\n    tag_245:\n        /* \"#utility.yul\":2622:2632   */\n      0x4e487b71\n        /* \"#utility.yul\":2617:2620   */\n      0xe0\n        /* \"#utility.yul\":2613:2633   */\n      shl\n        /* \"#utility.yul\":2610:2611   */\n      0x00\n        /* \"#utility.yul\":2603:2634   */\n      mstore\n        /* \"#utility.yul\":2653:2657   */\n      0x11\n        /* \"#utility.yul\":2650:2651   */\n      0x04\n        /* \"#utility.yul\":2643:2658   */\n      mstore\n        /* \"#utility.yul\":2677:2681   */\n      0x24\n        /* \"#utility.yul\":2674:2675   */\n      0x00\n        /* \"#utility.yul\":2667:2682   */\n      revert\n        /* \"#utility.yul\":2693:2818   */\n    tag_139:\n        /* \"#utility.yul\":2733:2737   */\n      0x00\n        /* \"#utility.yul\":2761:2762   */\n      dup3\n        /* \"#utility.yul\":2758:2759   */\n      dup3\n        /* \"#utility.yul\":2755:2763   */\n      lt\n        /* \"#utility.yul\":2752:2786   */\n      iszero\n      tag_266\n      jumpi\n        /* \"#utility.yul\":2766:2784   */\n      tag_266\n      tag_245\n      jump\t// in\n    tag_266:\n      pop\n        /* \"#utility.yul\":2803:2812   */\n      sub\n      swap1\n        /* \"#utility.yul\":2693:2818   */\n      jump\t// out\n        /* \"#utility.yul\":3075:3202   */\n    tag_246:\n        /* \"#utility.yul\":3136:3146   */\n      0x4e487b71\n        /* \"#utility.yul\":3131:3134   */\n      0xe0\n        /* \"#utility.yul\":3127:3147   */\n      shl\n        /* \"#utility.yul\":3124:3125   */\n      0x00\n        /* \"#utility.yul\":3117:3148   */\n      mstore\n        /* \"#utility.yul\":3167:3171   */\n      0x12\n        /* \"#utility.yul\":3164:3165   */\n      0x04\n        /* \"#utility.yul\":3157:3172   */\n      mstore\n        /* \"#utility.yul\":3191:3195   */\n      0x24\n        /* \"#utility.yul\":3188:3189   */\n      0x00\n        /* \"#utility.yul\":3181:3196   */\n      revert\n        /* \"#utility.yul\":3207:3319   */\n    tag_143:\n        /* \"#utility.yul\":3239:3240   */\n      0x00\n        /* \"#utility.yul\":3265:3266   */\n      dup3\n        /* \"#utility.yul\":3255:3290   */\n      tag_271\n      jumpi\n        /* \"#utility.yul\":3270:3288   */\n      tag_271\n      tag_246\n      jump\t// in\n    tag_271:\n      pop\n        /* \"#utility.yul\":3304:3313   */\n      mod\n      swap1\n        /* \"#utility.yul\":3207:3319   */\n      jump\t// out\n        /* \"#utility.yul\":3324:3451   */\n    tag_146:\n        /* \"#utility.yul\":3385:3395   */\n      0x4e487b71\n        /* \"#utility.yul\":3380:3383   */\n      0xe0\n        /* \"#utility.yul\":3376:3396   */\n      shl\n        /* \"#utility.yul\":3373:3374   */\n      0x00\n        /* \"#utility.yul\":3366:3397   */\n      mstore\n        /* \"#utility.yul\":3416:3420   */\n      0x32\n        /* \"#utility.yul\":3413:3414   */\n      0x04\n        /* \"#utility.yul\":3406:3421   */\n      mstore\n        /* \"#utility.yul\":3440:3444   */\n      0x24\n        /* \"#utility.yul\":3437:3438   */\n      0x00\n        /* \"#utility.yul\":3430:3445   */\n      revert\n        /* \"#utility.yul\":3456:3624   */\n    tag_150:\n        /* \"#utility.yul\":3496:3503   */\n      0x00\n        /* \"#utility.yul\":3562:3563   */\n      dup2\n        /* \"#utility.yul\":3558:3559   */\n      0x00\n        /* \"#utility.yul\":3554:3560   */\n      not\n        /* \"#utility.yul\":3550:3564   */\n      div\n        /* \"#utility.yul\":3547:3548   */\n      dup4\n        /* \"#utility.yul\":3544:3565   */\n      gt\n        /* \"#utility.yul\":3539:3540   */\n      dup3\n        /* \"#utility.yul\":3532:3541   */\n      iszero\n        /* \"#utility.yul\":3525:3542   */\n      iszero\n        /* \"#utility.yul\":3521:3566   */\n      and\n        /* \"#utility.yul\":3518:3589   */\n      iszero\n      tag_275\n      jumpi\n        /* \"#utility.yul\":3569:3587   */\n      tag_275\n      tag_245\n      jump\t// in\n    tag_275:\n      pop\n        /* \"#utility.yul\":3609:3618   */\n      mul\n      swap1\n        /* \"#utility.yul\":3456:3624   */\n      jump\t// out\n        /* \"#utility.yul\":3629:3757   */\n    tag_152:\n        /* \"#utility.yul\":3669:3672   */\n      0x00\n        /* \"#utility.yul\":3700:3701   */\n      dup3\n        /* \"#utility.yul\":3696:3702   */\n      not\n        /* \"#utility.yul\":3693:3694   */\n      dup3\n        /* \"#utility.yul\":3690:3703   */\n      gt\n        /* \"#utility.yul\":3687:3726   */\n      iszero\n      tag_278\n      jumpi\n        /* \"#utility.yul\":3706:3724   */\n      tag_278\n      tag_245\n      jump\t// in\n    tag_278:\n      pop\n        /* \"#utility.yul\":3742:3751   */\n      add\n      swap1\n        /* \"#utility.yul\":3629:3757   */\n      jump\t// out\n        /* \"#utility.yul\":4113:4371   */\n    tag_247:\n        /* \"#utility.yul\":4185:4186   */\n      0x00\n        /* \"#utility.yul\":4195:4308   */\n    tag_281:\n        /* \"#utility.yul\":4209:4215   */\n      dup4\n        /* \"#utility.yul\":4206:4207   */\n      dup2\n        /* \"#utility.yul\":4203:4216   */\n      lt\n        /* \"#utility.yul\":4195:4308   */\n      iszero\n      tag_283\n      jumpi\n        /* \"#utility.yul\":4285:4296   */\n      dup2\n      dup2\n      add\n        /* \"#utility.yul\":4279:4297   */\n      mload\n        /* \"#utility.yul\":4266:4277   */\n      dup4\n      dup3\n      add\n        /* \"#utility.yul\":4259:4298   */\n      mstore\n        /* \"#utility.yul\":4231:4233   */\n      0x20\n        /* \"#utility.yul\":4224:4234   */\n      add\n        /* \"#utility.yul\":4195:4308   */\n      jump(tag_281)\n    tag_283:\n        /* \"#utility.yul\":4326:4332   */\n      dup4\n        /* \"#utility.yul\":4323:4324   */\n      dup2\n        /* \"#utility.yul\":4320:4333   */\n      gt\n        /* \"#utility.yul\":4317:4365   */\n      iszero\n      tag_284\n      jumpi\n        /* \"#utility.yul\":4361:4362   */\n      0x00\n        /* \"#utility.yul\":4352:4358   */\n      dup5\n        /* \"#utility.yul\":4347:4350   */\n      dup5\n        /* \"#utility.yul\":4343:4359   */\n      add\n        /* \"#utility.yul\":4336:4363   */\n      mstore\n        /* \"#utility.yul\":4317:4365   */\n    tag_284:\n      pop\n        /* \"#utility.yul\":4113:4371   */\n      pop\n      pop\n      pop\n      jump\t// out\n        /* \"#utility.yul\":4376:4964   */\n    tag_176:\n        /* \"#utility.yul\":4718:4750   */\n      0x7468652076616c7565206d757374206265206d756c7469706c65206f66200000\n        /* \"#utility.yul\":4713:4716   */\n      dup2\n        /* \"#utility.yul\":4706:4751   */\n      mstore\n        /* \"#utility.yul\":4688:4691   */\n      0x00\n        /* \"#utility.yul\":4780:4786   */\n      dup3\n        /* \"#utility.yul\":4774:4787   */\n      mload\n        /* \"#utility.yul\":4796:4858   */\n      tag_286\n        /* \"#utility.yul\":4851:4857   */\n      dup2\n        /* \"#utility.yul\":4846:4848   */\n      0x1e\n        /* \"#utility.yul\":4841:4844   */\n      dup6\n        /* \"#utility.yul\":4837:4849   */\n      add\n        /* \"#utility.yul\":4830:4834   */\n      0x20\n        /* \"#utility.yul\":4822:4828   */\n      dup8\n        /* \"#utility.yul\":4818:4835   */\n      add\n        /* \"#utility.yul\":4796:4858   */\n      tag_247\n      jump\t// in\n    tag_286:\n        /* \"#utility.yul\":4922:4930   */\n      0x2045746865720000000000000000000000000000000000000000000000000000\n        /* \"#utility.yul\":4917:4919   */\n      0x1e\n        /* \"#utility.yul\":4877:4893   */\n      swap4\n      swap1\n      swap2\n      add\n        /* \"#utility.yul\":4909:4920   */\n      swap3\n      dup4\n      add\n        /* \"#utility.yul\":4902:4931   */\n      mstore\n      pop\n        /* \"#utility.yul\":4955:4957   */\n      0x24\n        /* \"#utility.yul\":4947:4958   */\n      add\n      swap2\n        /* \"#utility.yul\":4376:4964   */\n      swap1\n      pop\n      jump\t// out\n        /* \"#utility.yul\":4969:5352   */\n    tag_179:\n        /* \"#utility.yul\":5118:5120   */\n      0x20\n        /* \"#utility.yul\":5107:5116   */\n      dup2\n        /* \"#utility.yul\":5100:5121   */\n      mstore\n        /* \"#utility.yul\":5081:5085   */\n      0x00\n        /* \"#utility.yul\":5150:5156   */\n      dup3\n        /* \"#utility.yul\":5144:5157   */\n      mload\n        /* \"#utility.yul\":5193:5199   */\n      dup1\n        /* \"#utility.yul\":5188:5190   */\n      0x20\n        /* \"#utility.yul\":5177:5186   */\n      dup5\n        /* \"#utility.yul\":5173:5191   */\n      add\n        /* \"#utility.yul\":5166:5200   */\n      mstore\n        /* \"#utility.yul\":5209:5275   */\n      tag_288\n        /* \"#utility.yul\":5268:5274   */\n      dup2\n        /* \"#utility.yul\":5263:5265   */\n      0x40\n        /* \"#utility.yul\":5252:5261   */\n      dup6\n        /* \"#utility.yul\":5248:5266   */\n      add\n        /* \"#utility.yul\":5243:5245   */\n      0x20\n        /* \"#utility.yul\":5235:5241   */\n      dup8\n        /* \"#utility.yul\":5231:5246   */\n      add\n        /* \"#utility.yul\":5209:5275   */\n      tag_247\n      jump\t// in\n    tag_288:\n        /* \"#utility.yul\":5336:5338   */\n      0x1f\n        /* \"#utility.yul\":5315:5330   */\n      add\n      not(0x1f)\n        /* \"#utility.yul\":5311:5340   */\n      and\n        /* \"#utility.yul\":5296:5341   */\n      swap2\n      swap1\n      swap2\n      add\n        /* \"#utility.yul\":5343:5345   */\n      0x40\n        /* \"#utility.yul\":5292:5346   */\n      add\n      swap3\n        /* \"#utility.yul\":4969:5352   */\n      swap2\n      pop\n      pop\n      jump\t// out\n        /* \"#utility.yul\":5357:5477   */\n    tag_181:\n        /* \"#utility.yul\":5397:5398   */\n      0x00\n        /* \"#utility.yul\":5423:5424   */\n      dup3\n        /* \"#utility.yul\":5413:5448   */\n      tag_291\n      jumpi\n        /* \"#utility.yul\":5428:5446   */\n      tag_291\n      tag_246\n      jump\t// in\n    tag_291:\n      pop\n        /* \"#utility.yul\":5462:5471   */\n      div\n      swap1\n        /* \"#utility.yul\":5357:5477   */\n      jump\t// out\n        /* \"#utility.yul\":5840:5975   */\n    tag_191:\n        /* \"#utility.yul\":5879:5882   */\n      0x00\n        /* \"#utility.yul\":5900:5917   */\n      0x01\n      dup3\n      add\n        /* \"#utility.yul\":5897:5940   */\n      tag_295\n      jumpi\n        /* \"#utility.yul\":5920:5938   */\n      tag_295\n      tag_245\n      jump\t// in\n    tag_295:\n      pop\n        /* \"#utility.yul\":5967:5968   */\n      0x01\n        /* \"#utility.yul\":5956:5969   */\n      add\n      swap1\n        /* \"#utility.yul\":5840:5975   */\n      jump\t// out\n        /* \"#utility.yul\":6743:6870   */\n    tag_230:\n        /* \"#utility.yul\":6804:6814   */\n      0x4e487b71\n        /* \"#utility.yul\":6799:6802   */\n      0xe0\n        /* \"#utility.yul\":6795:6815   */\n      shl\n        /* \"#utility.yul\":6792:6793   */\n      0x00\n        /* \"#utility.yul\":6785:6816   */\n      mstore\n        /* \"#utility.yul\":6835:6839   */\n      0x41\n        /* \"#utility.yul\":6832:6833   */\n      0x04\n        /* \"#utility.yul\":6825:6840   */\n      mstore\n        /* \"#utility.yul\":6859:6863   */\n      0x24\n        /* \"#utility.yul\":6856:6857   */\n      0x00\n        /* \"#utility.yul\":6849:6864   */\n      revert\n\n    auxdata: 0xa26469706673582212202236a2716d9fbadb4b0a5b6ef189bfb4ea420e16c8abd53c21b5820821b5daad64736f6c634300080d0033\n}\n",
    "bytecode": {
      "linkReferences": {},
      "object": "6080604052600060025534801561001557600080fd5b50600180546001600160a01b03191633179055610034611c204261003c565b600055610062565b6000821982111561005d57634e487b7160e01b600052601160045260246000fd5b500190565b610ebb806100716000396000f3fe6080604052600436106101805760003560e01c806371827b7b116100d6578063ba946d791161007f578063ea3a149911610059578063ea3a1499146103c5578063f2613269146103f2578063fe1881841461040757600080fd5b8063ba946d7914610364578063c6944fa01461037a578063dd64e5341461038f57600080fd5b806396c85ef3116100b057806396c85ef31461030b5780639b8947031461033a578063a88f46721461034f57600080fd5b806371827b7b146102d957806391d8b14e146102ee57806393a563b5146102f657600080fd5b80634665096d1161013857806350b447121161011257806350b44712146102665780635a58acdd1461029e5780636032a4f9146102be57600080fd5b80634665096d146102195780634788af7c1461022f5780634ed026221461024457600080fd5b80630fb5a6b4116101695780630fb5a6b4146101d05780631209b1f6146101e657806335580df21461020257600080fd5b806306f7f3bf146101855780630789c607146101ae575b600080fd5b34801561019157600080fd5b5061019b60045481565b6040519081526020015b60405180910390f35b3480156101ba57600080fd5b503360009081526005602052604090205461019b565b3480156101dc57600080fd5b5061019b611c2081565b3480156101f257600080fd5b5061019b670de0b6b3a764000081565b34801561020e57600080fd5b50610217610427565b005b34801561022557600080fd5b5061019b60005481565b34801561023b57600080fd5b506102176104ce565b34801561025057600080fd5b5061025961067e565b6040516101a59190610c39565b34801561027257600080fd5b50610286610281366004610c86565b6106e0565b6040516001600160a01b0390911681526020016101a5565b3480156102aa57600080fd5b50600154610286906001600160a01b031681565b3480156102ca57600080fd5b5061019b66038d7ea4c6800081565b3480156102e557600080fd5b5061021761070a565b6102176107a9565b34801561030257600080fd5b5061019b6108e8565b34801561031757600080fd5b5033600090815260056020526040902054151560405190151581526020016101a5565b34801561034657600080fd5b5061019b606481565b34801561035b57600080fd5b506102176108fe565b34801561037057600080fd5b5061019b60025481565b34801561038657600080fd5b5061019b610a23565b34801561039b57600080fd5b5061019b6103aa366004610c9f565b6001600160a01b031660009081526005602052604090205490565b3480156103d157600080fd5b5061019b6103e0366004610c9f565b60056020526000908152604090205481565b3480156103fe57600080fd5b50610217610a4b565b34801561041357600080fd5b50600354610286906001600160a01b031681565b6001546001600160a01b031633146104915760405162461bcd60e51b815260206004820152602260248201527f43616c6c6572206973206e6f7420746865206c6f7474657279206f706572617460448201526137b960f11b60648201526084015b60405180910390fd5b600280546000918290556040513392839183156108fc0291849190818181858888f193505050501580156104c9573d6000803e3d6000fd5b505050565b60065461051d5760405162461bcd60e51b815260206004820152601960248201527f4e6f207469636b657473207765726520707572636861736564000000000000006044820152606401610488565b60065460009061052d9043610ce5565b604080514260208201529140908201819052915060009060600160408051601f1981840301815291905280516020909101206006549091506000906105729083610d12565b905060006006828154811061058957610589610d26565b6000918252602090912001546003805473ffffffffffffffffffffffffffffffffffffffff19166001600160a01b03909216918217905590506105db66038d7ea4c68000670de0b6b3a7640000610ce5565b6006546105e89190610d3c565b6001600160a01b03821660009081526005602052604081208054909190610610908490610d5b565b90915550506001600160a01b0381166000908152600560205260409020546004556006546106469066038d7ea4c6800090610d3c565b600260008282546106579190610d5b565b90915550610669905060066000610bff565b610675611c2042610d5b565b60005550505050565b606060068054806020026020016040519081016040528092919081815260200182805480156106d657602002820191906000526020600020905b81546001600160a01b031681526001909101906020018083116106b8575b5050505050905090565b600681815481106106f057600080fd5b6000918252602090912001546001600160a01b0316905081565b336000908152600560205260409020546107665760405162461bcd60e51b815260206004820152601660248201527f43616c6c6572206973206e6f7420612077696e6e6572000000000000000000006044820152606401610488565b3360008181526005602052604080822080549083905590519091839183156108fc0291849190818181858888f193505050501580156104c9573d6000803e3d6000fd5b6107bb670de0b6b3a764000034610d12565b156107cd670de0b6b3a7640000610ade565b6040516020016107dd9190610da3565b6040516020818303038152906040529061080a5760405162461bcd60e51b81526004016104889190610e0f565b50600061081f670de0b6b3a764000034610e42565b90506108296108e8565b8111156108785760405162461bcd60e51b815260206004820152601d60248201527f4e6f7420656e6f756768207469636b65747320617661696c61626c652e0000006044820152606401610488565b60005b818110156108e457600680546001810182556000919091527ff652222313e28459528d920b65115c16c04f3efc82aaedc97be59f3f377c0d3f01805473ffffffffffffffffffffffffffffffffffffffff191633179055806108dc81610e56565b91505061087b565b5050565b6006546000906108f9906064610ce5565b905090565b6000544210156109505760405162461bcd60e51b815260206004820152601b60248201527f746865206c6f7474657279206e6f7420657870697265642079657400000000006044820152606401610488565b60005b600654811015610a145760006006828154811061097257610972610d26565b6000918252602082200154600680546001600160a01b039092169350908490811061099f5761099f610d26565b60009182526020822001805473ffffffffffffffffffffffffffffffffffffffff19166001600160a01b0393841617905560405191831691670de0b6b3a76400009082818181858883f193505050501580156109ff573d6000803e3d6000fd5b50508080610a0c90610e56565b915050610953565b50610a2160066000610bff565b565b6000610a3e66038d7ea4c68000670de0b6b3a7640000610ce5565b6006546108f99190610d3c565b60065415610ac15760405162461bcd60e51b815260206004820152602660248201527f43616e6e6f74205265737461727420447261772061732044726177206973206960448201527f6e20706c617900000000000000000000000000000000000000000000000000006064820152608401610488565b610acd60066000610bff565b610ad9611c2042610d5b565b600055565b606081600003610b055750506040805180820190915260018152600360fc1b602082015290565b8160005b8115610b2f5780610b1981610e56565b9150610b289050600a83610e42565b9150610b09565b60008167ffffffffffffffff811115610b4a57610b4a610e6f565b6040519080825280601f01601f191660200182016040528015610b74576020820181803683370190505b5090505b8415610bf757610b89600183610ce5565b9150610b96600a86610d12565b610ba1906030610d5b565b60f81b818381518110610bb657610bb6610d26565b60200101907effffffffffffffffffffffffffffffffffffffffffffffffffffffffffffff1916908160001a905350610bf0600a86610e42565b9450610b78565b949350505050565b5080546000825590600052602060002090810190610c1d9190610c20565b50565b5b80821115610c355760008155600101610c21565b5090565b6020808252825182820181905260009190848201906040850190845b81811015610c7a5783516001600160a01b031683529284019291840191600101610c55565b50909695505050505050565b600060208284031215610c9857600080fd5b5035919050565b600060208284031215610cb157600080fd5b81356001600160a01b0381168114610cc857600080fd5b9392505050565b634e487b7160e01b600052601160045260246000fd5b600082821015610cf757610cf7610ccf565b500390565b634e487b7160e01b600052601260045260246000fd5b600082610d2157610d21610cfc565b500690565b634e487b7160e01b600052603260045260246000fd5b6000816000190483118215151615610d5657610d56610ccf565b500290565b60008219821115610d6e57610d6e610ccf565b500190565b60005b83811015610d8e578181015183820152602001610d76565b83811115610d9d576000848401525b50505050565b7f7468652076616c7565206d757374206265206d756c7469706c65206f66200000815260008251610ddb81601e850160208701610d73565b7f2045746865720000000000000000000000000000000000000000000000000000601e939091019283015250602401919050565b6020815260008251806020840152610e2e816040850160208701610d73565b601f01601f19169190910160400192915050565b600082610e5157610e51610cfc565b500490565b600060018201610e6857610e68610ccf565b5060010190565b634e487b7160e01b600052604160045260246000fdfea26469706673582212202236a2716d9fbadb4b0a5b6ef189bfb4ea420e16c8abd53c21b5820821b5daad64736f6c634300080d0033",
      "opcodes": "PUSH1 0x80 PUSH1 0x40 MSTORE PUSH1 0x0 PUSH1 0x2 SSTORE CALLVALUE DUP1 ISZERO PUSH2 0x15 JUMPI PUSH1 0x0 DUP1 REVERT JUMPDEST POP PUSH1 0x1 DUP1 SLOAD PUSH1 0x1 PUSH1 0x1 PUSH1 0xA0 SHL SUB NOT AND CALLER OR SWAP1 SSTORE PUSH2 0x34 PUSH2 0x1C20 TIMESTAMP PUSH2 0x3C JUMP JUMPDEST PUSH1 0x0 SSTORE PUSH2 0x62 JUMP JUMPDEST PUSH1 0x0 DUP3 NOT DUP3 GT ISZERO PUSH2 0x5D JUMPI PUSH4 0x4E487B71 PUSH1 0xE0 SHL PUSH1 0x0 MSTORE PUSH1 0x11 PUSH1 0x4 MSTORE PUSH1 0x24 PUSH1 0x0 REVERT JUMPDEST POP ADD SWAP1 JUMP JUMPDEST PUSH2 0xEBB DUP1 PUSH2 0x71 PUSH1 0x0 CODECOPY PUSH1 0x0 RETURN INVALID PUSH1 0x80 PUSH1 0x40 MSTORE PUSH1 0x4 CALLDATASIZE LT PUSH2 0x180 JUMPI PUSH1 0x0 CALLDATALOAD PUSH1 0xE0 SHR DUP1 PUSH4 0x71827B7B GT PUSH2 0xD6 JUMPI DUP1 PUSH4 0xBA946D79 GT PUSH2 0x7F JUMPI DUP1 PUSH4 0xEA3A1499 GT PUSH2 0x59 JUMPI DUP1 PUSH4 0xEA3A1499 EQ PUSH2 0x3C5 JUMPI DUP1 PUSH4 0xF2613269 EQ PUSH2 0x3F2 JUMPI DUP1 PUSH4 0xFE188184 EQ PUSH2 0x407 JUMPI PUSH1 0x0 DUP1 REVERT JUMPDEST DUP1 PUSH4 0xBA946D79 EQ PUSH2 0x364 JUMPI DUP1 PUSH4 0xC6944FA0 EQ PUSH2 0x37A JUMPI DUP1 PUSH4 0xDD64E534 EQ PUSH2 0x38F JUMPI PUSH1 0x0 DUP1 REVERT JUMPDEST DUP1 PUSH4 0x96C85EF3 GT PUSH2 0xB0 JUMPI DUP1 PUSH4 0x96C85EF3 EQ PUSH2 0x30B JUMPI DUP1 PUSH4 0x9B894703 EQ PUSH2 0x33A JUMPI DUP1 PUSH4 0xA88F4672 EQ PUSH2 0x34F JUMPI PUSH1 0x0 DUP1 REVERT JUMPDEST DUP1 PUSH4 0x71827B7B EQ PUSH2 0x2D9 JUMPI DUP1 PUSH4 0x91D8B14E EQ PUSH2 0x2EE JUMPI DUP1 PUSH4 0x93A563B5 EQ PUSH2 0x2F6 JUMPI PUSH1 0x0 DUP1 REVERT JUMPDEST DUP1 PUSH4 0x4665096D GT PUSH2 0x138 JUMPI DUP1 PUSH4 0x50B44712 GT PUSH2 0x112 JUMPI DUP1 PUSH4 0x50B44712 EQ PUSH2 0x266 JUMPI DUP1 PUSH4 0x5A58ACDD EQ PUSH2 0x29E JUMPI DUP1 PUSH4 0x6032A4F9 EQ PUSH2 0x2BE JUMPI PUSH1 0x0 DUP1 REVERT JUMPDEST DUP1 PUSH4 0x4665096D EQ PUSH2 0x219 JUMPI DUP1 PUSH4 0x4788AF7C EQ PUSH2 0x22F JUMPI DUP1 PUSH4 0x4ED02622 EQ PUSH2 0x244 JUMPI PUSH1 0x0 DUP1 REVERT JUMPDEST DUP1 PUSH4 0xFB5A6B4 GT PUSH2 0x169 JUMPI DUP1 PUSH4 0xFB5A6B4 EQ PUSH2 0x1D0 JUMPI DUP1 PUSH4 0x1209B1F6 EQ PUSH2 0x1E6 JUMPI DUP1 PUSH4 0x35580DF2 EQ PUSH2 0x202 JUMPI PUSH1 0x0 DUP1 REVERT JUMPDEST DUP1 PUSH4 0x6F7F3BF EQ PUSH2 0x185 JUMPI DUP1 PUSH4 0x789C607 EQ PUSH2 0x1AE JUMPI JUMPDEST PUSH1 0x0 DUP1 REVERT JUMPDEST CALLVALUE DUP1 ISZERO PUSH2 0x191 JUMPI PUSH1 0x0 DUP1 REVERT JUMPDEST POP PUSH2 0x19B PUSH1 0x4 SLOAD DUP2 JUMP JUMPDEST PUSH1 0x40 MLOAD SWAP1 DUP2 MSTORE PUSH1 0x20 ADD JUMPDEST PUSH1 0x40 MLOAD DUP1 SWAP2 SUB SWAP1 RETURN JUMPDEST CALLVALUE DUP1 ISZERO PUSH2 0x1BA JUMPI PUSH1 0x0 DUP1 REVERT JUMPDEST POP CALLER PUSH1 0x0 SWAP1 DUP2 MSTORE PUSH1 0x5 PUSH1 0x20 MSTORE PUSH1 0x40 SWAP1 KECCAK256 SLOAD PUSH2 0x19B JUMP JUMPDEST CALLVALUE DUP1 ISZERO PUSH2 0x1DC JUMPI PUSH1 0x0 DUP1 REVERT JUMPDEST POP PUSH2 0x19B PUSH2 0x1C20 DUP2 JUMP JUMPDEST CALLVALUE DUP1 ISZERO PUSH2 0x1F2 JUMPI PUSH1 0x0 DUP1 REVERT JUMPDEST POP PUSH2 0x19B PUSH8 0xDE0B6B3A7640000 DUP2 JUMP JUMPDEST CALLVALUE DUP1 ISZERO PUSH2 0x20E JUMPI PUSH1 0x0 DUP1 REVERT JUMPDEST POP PUSH2 0x217 PUSH2 0x427 JUMP JUMPDEST STOP JUMPDEST CALLVALUE DUP1 ISZERO PUSH2 0x225 JUMPI PUSH1 0x0 DUP1 REVERT JUMPDEST POP PUSH2 0x19B PUSH1 0x0 SLOAD DUP2 JUMP JUMPDEST CALLVALUE DUP1 ISZERO PUSH2 0x23B JUMPI PUSH1 0x0 DUP1 REVERT JUMPDEST POP PUSH2 0x217 PUSH2 0x4CE JUMP JUMPDEST CALLVALUE DUP1 ISZERO PUSH2 0x250 JUMPI PUSH1 0x0 DUP1 REVERT JUMPDEST POP PUSH2 0x259 PUSH2 0x67E JUMP JUMPDEST PUSH1 0x40 MLOAD PUSH2 0x1A5 SWAP2 SWAP1 PUSH2 0xC39 JUMP JUMPDEST CALLVALUE DUP1 ISZERO PUSH2 0x272 JUMPI PUSH1 0x0 DUP1 REVERT JUMPDEST POP PUSH2 0x286 PUSH2 0x281 CALLDATASIZE PUSH1 0x4 PUSH2 0xC86 JUMP JUMPDEST PUSH2 0x6E0 JUMP JUMPDEST PUSH1 0x40 MLOAD PUSH1 0x1 PUSH1 0x1 PUSH1 0xA0 SHL SUB SWAP1 SWAP2 AND DUP2 MSTORE PUSH1 0x20 ADD PUSH2 0x1A5 JUMP JUMPDEST CALLVALUE DUP1 ISZERO PUSH2 0x2AA JUMPI PUSH1 0x0 DUP1 REVERT JUMPDEST POP PUSH1 0x1 SLOAD PUSH2 0x286 SWAP1 PUSH1 0x1 PUSH1 0x1 PUSH1 0xA0 SHL SUB AND DUP2 JUMP JUMPDEST CALLVALUE DUP1 ISZERO PUSH2 0x2CA JUMPI PUSH1 0x0 DUP1 REVERT JUMPDEST POP PUSH2 0x19B PUSH7 0x38D7EA4C68000 DUP2 JUMP JUMPDEST CALLVALUE DUP1 ISZERO PUSH2 0x2E5 JUMPI PUSH1 0x0 DUP1 REVERT JUMPDEST POP PUSH2 0x217 PUSH2 0x70A JUMP JUMPDEST PUSH2 0x217 PUSH2 0x7A9 JUMP JUMPDEST CALLVALUE DUP1 ISZERO PUSH2 0x302 JUMPI PUSH1 0x0 DUP1 REVERT JUMPDEST POP PUSH2 0x19B PUSH2 0x8E8 JUMP JUMPDEST CALLVALUE DUP1 ISZERO PUSH2 0x317 JUMPI PUSH1 0x0 DUP1 REVERT JUMPDEST POP CALLER PUSH1 0x0 SWAP1 DUP2 MSTORE PUSH1 0x5 PUSH1 0x20 MSTORE PUSH1 0x40 SWAP1 KECCAK256 SLOAD ISZERO ISZERO PUSH1 0x40 MLOAD SWAP1 ISZERO ISZERO DUP2 MSTORE PUSH1 0x20 ADD PUSH2 0x1A5 JUMP JUMPDEST CALLVALUE DUP1 ISZERO PUSH2 0x346 JUMPI PUSH1 0x0 DUP1 REVERT JUMPDEST POP PUSH2 0x19B PUSH1 0x64 DUP2 JUMP JUMPDEST CALLVALUE DUP1 ISZERO PUSH2 0x35B JUMPI PUSH1 0x0 DUP1 REVERT JUMPDEST POP PUSH2 0x217 PUSH2 0x8FE JUMP JUMPDEST CALLVALUE DUP1 ISZERO PUSH2 0x370 JUMPI PUSH1 0x0 DUP1 REVERT JUMPDEST POP PUSH2 0x19B PUSH1 0x2 SLOAD DUP2 JUMP JUMPDEST CALLVALUE DUP1 ISZERO PUSH2 0x386 JUMPI PUSH1 0x0 DUP1 REVERT JUMPDEST POP PUSH2 0x19B PUSH2 0xA23 JUMP JUMPDEST CALLVALUE DUP1 ISZERO PUSH2 0x39B JUMPI PUSH1 0x0 DUP1 REVERT JUMPDEST POP PUSH2 0x19B PUSH2 0x3AA CALLDATASIZE PUSH1 0x4 PUSH2 0xC9F JUMP JUMPDEST PUSH1 0x1 PUSH1 0x1 PUSH1 0xA0 SHL SUB AND PUSH1 0x0 SWAP1 DUP2 MSTORE PUSH1 0x5 PUSH1 0x20 MSTORE PUSH1 0x40 SWAP1 KECCAK256 SLOAD SWAP1 JUMP JUMPDEST CALLVALUE DUP1 ISZERO PUSH2 0x3D1 JUMPI PUSH1 0x0 DUP1 REVERT JUMPDEST POP PUSH2 0x19B PUSH2 0x3E0 CALLDATASIZE PUSH1 0x4 PUSH2 0xC9F JUMP JUMPDEST PUSH1 0x5 PUSH1 0x20 MSTORE PUSH1 0x0 SWAP1 DUP2 MSTORE PUSH1 0x40 SWAP1 KECCAK256 SLOAD DUP2 JUMP JUMPDEST CALLVALUE DUP1 ISZERO PUSH2 0x3FE JUMPI PUSH1 0x0 DUP1 REVERT JUMPDEST POP PUSH2 0x217 PUSH2 0xA4B JUMP JUMPDEST CALLVALUE DUP1 ISZERO PUSH2 0x413 JUMPI PUSH1 0x0 DUP1 REVERT JUMPDEST POP PUSH1 0x3 SLOAD PUSH2 0x286 SWAP1 PUSH1 0x1 PUSH1 0x1 PUSH1 0xA0 SHL SUB AND DUP2 JUMP JUMPDEST PUSH1 0x1 SLOAD PUSH1 0x1 PUSH1 0x1 PUSH1 0xA0 SHL SUB AND CALLER EQ PUSH2 0x491 JUMPI PUSH1 0x40 MLOAD PUSH3 0x461BCD PUSH1 0xE5 SHL DUP2 MSTORE PUSH1 0x20 PUSH1 0x4 DUP3 ADD MSTORE PUSH1 0x22 PUSH1 0x24 DUP3 ADD MSTORE PUSH32 0x43616C6C6572206973206E6F7420746865206C6F7474657279206F7065726174 PUSH1 0x44 DUP3 ADD MSTORE PUSH2 0x37B9 PUSH1 0xF1 SHL PUSH1 0x64 DUP3 ADD MSTORE PUSH1 0x84 ADD JUMPDEST PUSH1 0x40 MLOAD DUP1 SWAP2 SUB SWAP1 REVERT JUMPDEST PUSH1 0x2 DUP1 SLOAD PUSH1 0x0 SWAP2 DUP3 SWAP1 SSTORE PUSH1 0x40 MLOAD CALLER SWAP3 DUP4 SWAP2 DUP4 ISZERO PUSH2 0x8FC MUL SWAP2 DUP5 SWAP2 SWAP1 DUP2 DUP2 DUP2 DUP6 DUP9 DUP9 CALL SWAP4 POP POP POP POP ISZERO DUP1 ISZERO PUSH2 0x4C9 JUMPI RETURNDATASIZE PUSH1 0x0 DUP1 RETURNDATACOPY RETURNDATASIZE PUSH1 0x0 REVERT JUMPDEST POP POP POP JUMP JUMPDEST PUSH1 0x6 SLOAD PUSH2 0x51D JUMPI PUSH1 0x40 MLOAD PUSH3 0x461BCD PUSH1 0xE5 SHL DUP2 MSTORE PUSH1 0x20 PUSH1 0x4 DUP3 ADD MSTORE PUSH1 0x19 PUSH1 0x24 DUP3 ADD MSTORE PUSH32 0x4E6F207469636B65747320776572652070757263686173656400000000000000 PUSH1 0x44 DUP3 ADD MSTORE PUSH1 0x64 ADD PUSH2 0x488 JUMP JUMPDEST PUSH1 0x6 SLOAD PUSH1 0x0 SWAP1 PUSH2 0x52D SWAP1 NUMBER PUSH2 0xCE5 JUMP JUMPDEST PUSH1 0x40 DUP1 MLOAD TIMESTAMP PUSH1 0x20 DUP3 ADD MSTORE SWAP2 BLOCKHASH SWAP1 DUP3 ADD DUP2 SWAP1 MSTORE SWAP2 POP PUSH1 0x0 SWAP1 PUSH1 0x60 ADD PUSH1 0x40 DUP1 MLOAD PUSH1 0x1F NOT DUP2 DUP5 SUB ADD DUP2 MSTORE SWAP2 SWAP1 MSTORE DUP1 MLOAD PUSH1 0x20 SWAP1 SWAP2 ADD KECCAK256 PUSH1 0x6 SLOAD SWAP1 SWAP2 POP PUSH1 0x0 SWAP1 PUSH2 0x572 SWAP1 DUP4 PUSH2 0xD12 JUMP JUMPDEST SWAP1 POP PUSH1 0x0 PUSH1 0x6 DUP3 DUP2 SLOAD DUP2 LT PUSH2 0x589 JUMPI PUSH2 0x589 PUSH2 0xD26 JUMP JUMPDEST PUSH1 0x0 SWAP2 DUP3 MSTORE PUSH1 0x20 SWAP1 SWAP2 KECCAK256 ADD SLOAD PUSH1 0x3 DUP1 SLOAD PUSH20 0xFFFFFFFFFFFFFFFFFFFFFFFFFFFFFFFFFFFFFFFF NOT AND PUSH1 0x1 PUSH1 0x1 PUSH1 0xA0 SHL SUB SWAP1 SWAP3 AND SWAP2 DUP3 OR SWAP1 SSTORE SWAP1 POP PUSH2 0x5DB PUSH7 0x38D7EA4C68000 PUSH8 0xDE0B6B3A7640000 PUSH2 0xCE5 JUMP JUMPDEST PUSH1 0x6 SLOAD PUSH2 0x5E8 SWAP2 SWAP1 PUSH2 0xD3C JUMP JUMPDEST PUSH1 0x1 PUSH1 0x1 PUSH1 0xA0 SHL SUB DUP3 AND PUSH1 0x0 SWAP1 DUP2 MSTORE PUSH1 0x5 PUSH1 0x20 MSTORE PUSH1 0x40 DUP2 KECCAK256 DUP1 SLOAD SWAP1 SWAP2 SWAP1 PUSH2 0x610 SWAP1 DUP5 SWAP1 PUSH2 0xD5B JUMP JUMPDEST SWAP1 SWAP2 SSTORE POP POP PUSH1 0x1 PUSH1 0x1 PUSH1 0xA0 SHL SUB DUP2 AND PUSH1 0x0 SWAP1 DUP2 MSTORE PUSH1 0x5 PUSH1 0x20 MSTORE PUSH1 0x40 SWAP1 KECCAK256 SLOAD PUSH1 0x4 SSTORE PUSH1 0x6 SLOAD PUSH2 0x646 SWAP1 PUSH7 0x38D7EA4C68000 SWAP1 PUSH2 0xD3C JUMP JUMPDEST PUSH1 0x2 PUSH1 0x0 DUP3 DUP3 SLOAD PUSH2 0x657 SWAP2 SWAP1 PUSH2 0xD5B JUMP JUMPDEST SWAP1 SWAP2 SSTORE POP PUSH2 0x669 SWAP1 POP PUSH1 0x6 PUSH1 0x0 PUSH2 0xBFF JUMP JUMPDEST PUSH2 0x675 PUSH2 0x1C20 TIMESTAMP PUSH2 0xD5B JUMP JUMPDEST PUSH1 0x0 SSTORE POP POP POP POP JUMP JUMPDEST PUSH1 0x60 PUSH1 0x6 DUP1 SLOAD DUP1 PUSH1 0x20 MUL PUSH1 0x20 ADD PUSH1 0x40 MLOAD SWAP1 DUP2 ADD PUSH1 0x40 MSTORE DUP1 SWAP3 SWAP2 SWAP1 DUP2 DUP2 MSTORE PUSH1 0x20 ADD DUP3 DUP1 SLOAD DUP1 ISZERO PUSH2 0x6D6 JUMPI PUSH1 0x20 MUL DUP3 ADD SWAP2 SWAP1 PUSH1 0x0 MSTORE PUSH1 0x20 PUSH1 0x0 KECCAK256 SWAP1 JUMPDEST DUP2 SLOAD PUSH1 0x1 PUSH1 0x1 PUSH1 0xA0 SHL SUB AND DUP2 MSTORE PUSH1 0x1 SWAP1 SWAP2 ADD SWAP1 PUSH1 0x20 ADD DUP1 DUP4 GT PUSH2 0x6B8 JUMPI JUMPDEST POP POP POP POP POP SWAP1 POP SWAP1 JUMP JUMPDEST PUSH1 0x6 DUP2 DUP2 SLOAD DUP2 LT PUSH2 0x6F0 JUMPI PUSH1 0x0 DUP1 REVERT JUMPDEST PUSH1 0x0 SWAP2 DUP3 MSTORE PUSH1 0x20 SWAP1 SWAP2 KECCAK256 ADD SLOAD PUSH1 0x1 PUSH1 0x1 PUSH1 0xA0 SHL SUB AND SWAP1 POP DUP2 JUMP JUMPDEST CALLER PUSH1 0x0 SWAP1 DUP2 MSTORE PUSH1 0x5 PUSH1 0x20 MSTORE PUSH1 0x40 SWAP1 KECCAK256 SLOAD PUSH2 0x766 JUMPI PUSH1 0x40 MLOAD PUSH3 0x461BCD PUSH1 0xE5 SHL DUP2 MSTORE PUSH1 0x20 PUSH1 0x4 DUP3 ADD MSTORE PUSH1 0x16 PUSH1 0x24 DUP3 ADD MSTORE PUSH32 0x43616C6C6572206973206E6F7420612077696E6E657200000000000000000000 PUSH1 0x44 DUP3 ADD MSTORE PUSH1 0x64 ADD PUSH2 0x488 JUMP JUMPDEST CALLER PUSH1 0x0 DUP2 DUP2 MSTORE PUSH1 0x5 PUSH1 0x20 MSTORE PUSH1 0x40 DUP1 DUP3 KECCAK256 DUP1 SLOAD SWAP1 DUP4 SWAP1 SSTORE SWAP1 MLOAD SWAP1 SWAP2 DUP4 SWAP2 DUP4 ISZERO PUSH2 0x8FC MUL SWAP2 DUP5 SWAP2 SWAP1 DUP2 DUP2 DUP2 DUP6 DUP9 DUP9 CALL SWAP4 POP POP POP POP ISZERO DUP1 ISZERO PUSH2 0x4C9 JUMPI RETURNDATASIZE PUSH1 0x0 DUP1 RETURNDATACOPY RETURNDATASIZE PUSH1 0x0 REVERT JUMPDEST PUSH2 0x7BB PUSH8 0xDE0B6B3A7640000 CALLVALUE PUSH2 0xD12 JUMP JUMPDEST ISZERO PUSH2 0x7CD PUSH8 0xDE0B6B3A7640000 PUSH2 0xADE JUMP JUMPDEST PUSH1 0x40 MLOAD PUSH1 0x20 ADD PUSH2 0x7DD SWAP2 SWAP1 PUSH2 0xDA3 JUMP JUMPDEST PUSH1 0x40 MLOAD PUSH1 0x20 DUP2 DUP4 SUB SUB DUP2 MSTORE SWAP1 PUSH1 0x40 MSTORE SWAP1 PUSH2 0x80A JUMPI PUSH1 0x40 MLOAD PUSH3 0x461BCD PUSH1 0xE5 SHL DUP2 MSTORE PUSH1 0x4 ADD PUSH2 0x488 SWAP2 SWAP1 PUSH2 0xE0F JUMP JUMPDEST POP PUSH1 0x0 PUSH2 0x81F PUSH8 0xDE0B6B3A7640000 CALLVALUE PUSH2 0xE42 JUMP JUMPDEST SWAP1 POP PUSH2 0x829 PUSH2 0x8E8 JUMP JUMPDEST DUP2 GT ISZERO PUSH2 0x878 JUMPI PUSH1 0x40 MLOAD PUSH3 0x461BCD PUSH1 0xE5 SHL DUP2 MSTORE PUSH1 0x20 PUSH1 0x4 DUP3 ADD MSTORE PUSH1 0x1D PUSH1 0x24 DUP3 ADD MSTORE PUSH32 0x4E6F7420656E6F756768207469636B65747320617661696C61626C652E000000 PUSH1 0x44 DUP3 ADD MSTORE PUSH1 0x64 ADD PUSH2 0x488 JUMP JUMPDEST PUSH1 0x0 JUMPDEST DUP2 DUP2 LT ISZERO PUSH2 0x8E4 JUMPI PUSH1 0x6 DUP1 SLOAD PUSH1 0x1 DUP2 ADD DUP3 SSTORE PUSH1 0x0 SWAP2 SWAP1 SWAP2 MSTORE PUSH32 0xF652222313E28459528D920B65115C16C04F3EFC82AAEDC97BE59F3F377C0D3F ADD DUP1 SLOAD PUSH20 0xFFFFFFFFFFFFFFFFFFFFFFFFFFFFFFFFFFFFFFFF NOT AND CALLER OR SWAP1 SSTORE DUP1 PUSH2 0x8DC DUP2 PUSH2 0xE56 JUMP JUMPDEST SWAP2 POP POP PUSH2 0x87B JUMP JUMPDEST POP POP JUMP JUMPDEST PUSH1 0x6 SLOAD PUSH1 0x0 SWAP1 PUSH2 0x8F9 SWAP1 PUSH1 0x64 PUSH2 0xCE5 JUMP JUMPDEST SWAP1 POP SWAP1 JUMP JUMPDEST PUSH1 0x0 SLOAD TIMESTAMP LT ISZERO PUSH2 0x950 JUMPI PUSH1 0x40 MLOAD PUSH3 0x461BCD PUSH1 0xE5 SHL DUP2 MSTORE PUSH1 0x20 PUSH1 0x4 DUP3 ADD MSTORE PUSH1 0x1B PUSH1 0x24 DUP3 ADD MSTORE PUSH32 0x746865206C6F7474657279206E6F742065787069726564207965740000000000 PUSH1 0x44 DUP3 ADD MSTORE PUSH1 0x64 ADD PUSH2 0x488 JUMP JUMPDEST PUSH1 0x0 JUMPDEST PUSH1 0x6 SLOAD DUP2 LT ISZERO PUSH2 0xA14 JUMPI PUSH1 0x0 PUSH1 0x6 DUP3 DUP2 SLOAD DUP2 LT PUSH2 0x972 JUMPI PUSH2 0x972 PUSH2 0xD26 JUMP JUMPDEST PUSH1 0x0 SWAP2 DUP3 MSTORE PUSH1 0x20 DUP3 KECCAK256 ADD SLOAD PUSH1 0x6 DUP1 SLOAD PUSH1 0x1 PUSH1 0x1 PUSH1 0xA0 SHL SUB SWAP1 SWAP3 AND SWAP4 POP SWAP1 DUP5 SWAP1 DUP2 LT PUSH2 0x99F JUMPI PUSH2 0x99F PUSH2 0xD26 JUMP JUMPDEST PUSH1 0x0 SWAP2 DUP3 MSTORE PUSH1 0x20 DUP3 KECCAK256 ADD DUP1 SLOAD PUSH20 0xFFFFFFFFFFFFFFFFFFFFFFFFFFFFFFFFFFFFFFFF NOT AND PUSH1 0x1 PUSH1 0x1 PUSH1 0xA0 SHL SUB SWAP4 DUP5 AND OR SWAP1 SSTORE PUSH1 0x40 MLOAD SWAP2 DUP4 AND SWAP2 PUSH8 0xDE0B6B3A7640000 SWAP1 DUP3 DUP2 DUP2 DUP2 DUP6 DUP9 DUP4 CALL SWAP4 POP POP POP POP ISZERO DUP1 ISZERO PUSH2 0x9FF JUMPI RETURNDATASIZE PUSH1 0x0 DUP1 RETURNDATACOPY RETURNDATASIZE PUSH1 0x0 REVERT JUMPDEST POP POP DUP1 DUP1 PUSH2 0xA0C SWAP1 PUSH2 0xE56 JUMP JUMPDEST SWAP2 POP POP PUSH2 0x953 JUMP JUMPDEST POP PUSH2 0xA21 PUSH1 0x6 PUSH1 0x0 PUSH2 0xBFF JUMP JUMPDEST JUMP JUMPDEST PUSH1 0x0 PUSH2 0xA3E PUSH7 0x38D7EA4C68000 PUSH8 0xDE0B6B3A7640000 PUSH2 0xCE5 JUMP JUMPDEST PUSH1 0x6 SLOAD PUSH2 0x8F9 SWAP2 SWAP1 PUSH2 0xD3C JUMP JUMPDEST PUSH1 0x6 SLOAD ISZERO PUSH2 0xAC1 JUMPI PUSH1 0x40 MLOAD PUSH3 0x461BCD PUSH1 0xE5 SHL DUP2 MSTORE PUSH1 0x20 PUSH1 0x4 DUP3 ADD MSTORE PUSH1 0x26 PUSH1 0x24 DUP3 ADD MSTORE PUSH32 0x43616E6E6F742052657374617274204472617720617320447261772069732069 PUSH1 0x44 DUP3 ADD MSTORE PUSH32 0x6E20706C61790000000000000000000000000000000000000000000000000000 PUSH1 0x64 DUP3 ADD MSTORE PUSH1 0x84 ADD PUSH2 0x488 JUMP JUMPDEST PUSH2 0xACD PUSH1 0x6 PUSH1 0x0 PUSH2 0xBFF JUMP JUMPDEST PUSH2 0xAD9 PUSH2 0x1C20 TIMESTAMP PUSH2 0xD5B JUMP JUMPDEST PUSH1 0x0 SSTORE JUMP JUMPDEST PUSH1 0x60 DUP2 PUSH1 0x0 SUB PUSH2 0xB05 JUMPI POP POP PUSH1 0x40 DUP1 MLOAD DUP1 DUP3 ADD SWAP1 SWAP2 MSTORE PUSH1 0x1 DUP2 MSTORE PUSH1 0x3 PUSH1 0xFC SHL PUSH1 0x20 DUP3 ADD MSTORE SWAP1 JUMP JUMPDEST DUP2 PUSH1 0x0 JUMPDEST DUP2 ISZERO PUSH2 0xB2F JUMPI DUP1 PUSH2 0xB19 DUP2 PUSH2 0xE56 JUMP JUMPDEST SWAP2 POP PUSH2 0xB28 SWAP1 POP PUSH1 0xA DUP4 PUSH2 0xE42 JUMP JUMPDEST SWAP2 POP PUSH2 0xB09 JUMP JUMPDEST PUSH1 0x0 DUP2 PUSH8 0xFFFFFFFFFFFFFFFF DUP2 GT ISZERO PUSH2 0xB4A JUMPI PUSH2 0xB4A PUSH2 0xE6F JUMP JUMPDEST PUSH1 0x40 MLOAD SWAP1 DUP1 DUP3 MSTORE DUP1 PUSH1 0x1F ADD PUSH1 0x1F NOT AND PUSH1 0x20 ADD DUP3 ADD PUSH1 0x40 MSTORE DUP1 ISZERO PUSH2 0xB74 JUMPI PUSH1 0x20 DUP3 ADD DUP2 DUP1 CALLDATASIZE DUP4 CALLDATACOPY ADD SWAP1 POP JUMPDEST POP SWAP1 POP JUMPDEST DUP5 ISZERO PUSH2 0xBF7 JUMPI PUSH2 0xB89 PUSH1 0x1 DUP4 PUSH2 0xCE5 JUMP JUMPDEST SWAP2 POP PUSH2 0xB96 PUSH1 0xA DUP7 PUSH2 0xD12 JUMP JUMPDEST PUSH2 0xBA1 SWAP1 PUSH1 0x30 PUSH2 0xD5B JUMP JUMPDEST PUSH1 0xF8 SHL DUP2 DUP4 DUP2 MLOAD DUP2 LT PUSH2 0xBB6 JUMPI PUSH2 0xBB6 PUSH2 0xD26 JUMP JUMPDEST PUSH1 0x20 ADD ADD SWAP1 PUSH31 0xFFFFFFFFFFFFFFFFFFFFFFFFFFFFFFFFFFFFFFFFFFFFFFFFFFFFFFFFFFFFFF NOT AND SWAP1 DUP2 PUSH1 0x0 BYTE SWAP1 MSTORE8 POP PUSH2 0xBF0 PUSH1 0xA DUP7 PUSH2 0xE42 JUMP JUMPDEST SWAP5 POP PUSH2 0xB78 JUMP JUMPDEST SWAP5 SWAP4 POP POP POP POP JUMP JUMPDEST POP DUP1 SLOAD PUSH1 0x0 DUP3 SSTORE SWAP1 PUSH1 0x0 MSTORE PUSH1 0x20 PUSH1 0x0 KECCAK256 SWAP1 DUP2 ADD SWAP1 PUSH2 0xC1D SWAP2 SWAP1 PUSH2 0xC20 JUMP JUMPDEST POP JUMP JUMPDEST JUMPDEST DUP1 DUP3 GT ISZERO PUSH2 0xC35 JUMPI PUSH1 0x0 DUP2 SSTORE PUSH1 0x1 ADD PUSH2 0xC21 JUMP JUMPDEST POP SWAP1 JUMP JUMPDEST PUSH1 0x20 DUP1 DUP3 MSTORE DUP3 MLOAD DUP3 DUP3 ADD DUP2 SWAP1 MSTORE PUSH1 0x0 SWAP2 SWAP1 DUP5 DUP3 ADD SWAP1 PUSH1 0x40 DUP6 ADD SWAP1 DUP5 JUMPDEST DUP2 DUP2 LT ISZERO PUSH2 0xC7A JUMPI DUP4 MLOAD PUSH1 0x1 PUSH1 0x1 PUSH1 0xA0 SHL SUB AND DUP4 MSTORE SWAP3 DUP5 ADD SWAP3 SWAP2 DUP5 ADD SWAP2 PUSH1 0x1 ADD PUSH2 0xC55 JUMP JUMPDEST POP SWAP1 SWAP7 SWAP6 POP POP POP POP POP POP JUMP JUMPDEST PUSH1 0x0 PUSH1 0x20 DUP3 DUP5 SUB SLT ISZERO PUSH2 0xC98 JUMPI PUSH1 0x0 DUP1 REVERT JUMPDEST POP CALLDATALOAD SWAP2 SWAP1 POP JUMP JUMPDEST PUSH1 0x0 PUSH1 0x20 DUP3 DUP5 SUB SLT ISZERO PUSH2 0xCB1 JUMPI PUSH1 0x0 DUP1 REVERT JUMPDEST DUP2 CALLDATALOAD PUSH1 0x1 PUSH1 0x1 PUSH1 0xA0 SHL SUB DUP2 AND DUP2 EQ PUSH2 0xCC8 JUMPI PUSH1 0x0 DUP1 REVERT JUMPDEST SWAP4 SWAP3 POP POP POP JUMP JUMPDEST PUSH4 0x4E487B71 PUSH1 0xE0 SHL PUSH1 0x0 MSTORE PUSH1 0x11 PUSH1 0x4 MSTORE PUSH1 0x24 PUSH1 0x0 REVERT JUMPDEST PUSH1 0x0 DUP3 DUP3 LT ISZERO PUSH2 0xCF7 JUMPI PUSH2 0xCF7 PUSH2 0xCCF JUMP JUMPDEST POP SUB SWAP1 JUMP JUMPDEST PUSH4 0x4E487B71 PUSH1 0xE0 SHL PUSH1 0x0 MSTORE PUSH1 0x12 PUSH1 0x4 MSTORE PUSH1 0x24 PUSH1 0x0 REVERT JUMPDEST PUSH1 0x0 DUP3 PUSH2 0xD21 JUMPI PUSH2 0xD21 PUSH2 0xCFC JUMP JUMPDEST POP MOD SWAP1 JUMP JUMPDEST PUSH4 0x4E487B71 PUSH1 0xE0 SHL PUSH1 0x0 MSTORE PUSH1 0x32 PUSH1 0x4 MSTORE PUSH1 0x24 PUSH1 0x0 REVERT JUMPDEST PUSH1 0x0 DUP2 PUSH1 0x0 NOT DIV DUP4 GT DUP3 ISZERO ISZERO AND ISZERO PUSH2 0xD56 JUMPI PUSH2 0xD56 PUSH2 0xCCF JUMP JUMPDEST POP MUL SWAP1 JUMP JUMPDEST PUSH1 0x0 DUP3 NOT DUP3 GT ISZERO PUSH2 0xD6E JUMPI PUSH2 0xD6E PUSH2 0xCCF JUMP JUMPDEST POP ADD SWAP1 JUMP JUMPDEST PUSH1 0x0 JUMPDEST DUP4 DUP2 LT ISZERO PUSH2 0xD8E JUMPI DUP2 DUP2 ADD MLOAD DUP4 DUP3 ADD MSTORE PUSH1 0x20 ADD PUSH2 0xD76 JUMP JUMPDEST DUP4 DUP2 GT ISZERO PUSH2 0xD9D JUMPI PUSH1 0x0 DUP5 DUP5 ADD MSTORE JUMPDEST POP POP POP POP JUMP JUMPDEST PUSH32 0x7468652076616C7565206D757374206265206D756C7469706C65206F66200000 DUP2 MSTORE PUSH1 0x0 DUP3 MLOAD PUSH2 0xDDB DUP2 PUSH1 0x1E DUP6 ADD PUSH1 0x20 DUP8 ADD PUSH2 0xD73 JUMP JUMPDEST PUSH32 0x2045746865720000000000000000000000000000000000000000000000000000 PUSH1 0x1E SWAP4 SWAP1 SWAP2 ADD SWAP3 DUP4 ADD MSTORE POP PUSH1 0x24 ADD SWAP2 SWAP1 POP JUMP JUMPDEST PUSH1 0x20 DUP2 MSTORE PUSH1 0x0 DUP3 MLOAD DUP1 PUSH1 0x20 DUP5 ADD MSTORE PUSH2 0xE2E DUP2 PUSH1 0x40 DUP6 ADD PUSH1 0x20 DUP8 ADD PUSH2 0xD73 JUMP JUMPDEST PUSH1 0x1F ADD PUSH1 0x1F NOT AND SWAP2 SWAP1 SWAP2 ADD PUSH1 0x40 ADD SWAP3 SWAP2 POP POP JUMP JUMPDEST PUSH1 0x0 DUP3 PUSH2 0xE51 JUMPI PUSH2 0xE51 PUSH2 0xCFC JUMP JUMPDEST POP DIV SWAP1 JUMP JUMPDEST PUSH1 0x0 PUSH1 0x1 DUP3 ADD PUSH2 0xE68 JUMPI PUSH2 0xE68 PUSH2 0xCCF JUMP JUMPDEST POP PUSH1 0x1 ADD SWAP1 JUMP JUMPDEST PUSH4 0x4E487B71 PUSH1 0xE0 SHL PUSH1 0x0 MSTORE PUSH1 0x41 PUSH1 0x4 MSTORE PUSH1 0x24 PUSH1 0x0 REVERT INVALID LOG2 PUSH5 0x6970667358 0x22 SLT KECCAK256 0x22 CALLDATASIZE LOG2 PUSH18 0x6D9FBADB4B0A5B6EF189BFB4EA420E16C8AB 0xD5 EXTCODECOPY 0x21 0xB5 DUP3 ADDMOD 0x21 0xB5 0xDA 0xAD PUSH5 0x736F6C6343 STOP ADDMOD 0xD STOP CALLER "
    },
    "gasEstimates": {
      "creation": {
        "codeDepositCost": "754200",
        "executionCost": "52211",
        "totalCost": "806411"
      },
      "external": {
        "BuyTickets()": "infinite",
        "CurrentWinningReward()": "2530",
        "DrawWinnerTicket()": "infinite",
        "IsWinner()": "2405",
        "RefundAll()": "infinite",
        "RemainingTickets()": "2464",
        "WithdrawCommission()": "infinite",
        "WithdrawWinnings()": "infinite",
        "checkWinningsAmount()": "2418",
        "duration()": "230",
        "expiration()": "2330",
        "getTickets()": "infinite",
        "getWinningsForAddress(address)": "2580",
        "lastWinner()": "2425",
        "lastWinnerAmount()": "2331",
        "lotteryOperator()": "2404",
        "maxTickets()": "251",
        "operatorTotalCommission()": "2329",
        "restartDraw()": "infinite",
        "ticketCommission()": "273",
        "ticketPrice()": "252",
        "tickets(uint256)": "4659",
        "winnings(address)": "2517"
      }
    },
    "methodIdentifiers": {
      "BuyTickets()": "91d8b14e",
      "CurrentWinningReward()": "c6944fa0",
      "DrawWinnerTicket()": "4788af7c",
      "IsWinner()": "96c85ef3",
      "RefundAll()": "a88f4672",
      "RemainingTickets()": "93a563b5",
      "WithdrawCommission()": "35580df2",
      "WithdrawWinnings()": "71827b7b",
      "checkWinningsAmount()": "0789c607",
      "duration()": "0fb5a6b4",
      "expiration()": "4665096d",
      "getTickets()": "4ed02622",
      "getWinningsForAddress(address)": "dd64e534",
      "lastWinner()": "fe188184",
      "lastWinnerAmount()": "06f7f3bf",
      "lotteryOperator()": "5a58acdd",
      "maxTickets()": "9b894703",
      "operatorTotalCommission()": "ba946d79",
      "restartDraw()": "f2613269",
      "ticketCommission()": "6032a4f9",
      "ticketPrice()": "1209b1f6",
      "tickets(uint256)": "50b44712",
      "winnings(address)": "ea3a1499"
    }
  },
  "storageLayout": {
    "storage": [
      {
        "astId": 16,
        "contract": "NDLottery.sol:NDLottery",
        "label": "expiration",
        "offset": 0,
        "slot": "0",
        "type": "t_uint256"
      },
      {
        "astId": 18,
        "contract": "NDLottery.sol:NDLottery",
        "label": "lotteryOperator",
        "offset": 0,
        "slot": "1",
        "type": "t_address"
      },
      {
        "astId": 21,
        "contract": "NDLottery.sol:NDLottery",
        "label": "operatorTotalCommission",
        "offset": 0,
        "slot": "2",
        "type": "t_uint256"
      },
      {
        "astId": 23,
        "contract": "NDLottery.sol:NDLottery",
        "label": "lastWinner",
        "offset": 0,
        "slot": "3",
        "type": "t_address"
      },
      {
        "astId": 25,
        "contract": "NDLottery.sol:NDLottery",
        "label": "lastWinnerAmount",
        "offset": 0,
        "slot": "4",
        "type": "t_uint256"
      },
      {
        "astId": 29,
        "contract": "NDLottery.sol:NDLottery",
        "label": "winnings",
        "offset": 0,
        "slot": "5",
        "type": "t_mapping(t_address,t_uint256)"
      },
      {
        "astId": 32,
        "contract": "NDLottery.sol:NDLottery",
        "label": "tickets",
        "offset": 0,
        "slot": "6",
        "type": "t_array(t_address)dyn_storage"
      }
    ],
    "types": {
      "t_address": {
        "encoding": "inplace",
        "label": "address",
        "numberOfBytes": "20"
      },
      "t_array(t_address)dyn_storage": {
        "base": "t_address",
        "encoding": "dynamic_array",
        "label": "address[]",
        "numberOfBytes": "32"
      },
      "t_mapping(t_address,t_uint256)": {
        "encoding": "mapping",
        "key": "t_address",
        "label": "mapping(address => uint256)",
        "numberOfBytes": "32",
        "value": "t_uint256"
      },
      "t_uint256": {
        "encoding": "inplace",
        "label": "uint256",
        "numberOfBytes": "32"
      }
    }
  },
  "userdoc": {
    "kind": "user",
    "methods": {},
    "version": 1
  }
}